{
  "contractName": "DoChecks",
  "abi": [
    {
      "constant": true,
      "inputs": [],
      "name": "childBlockInterval",
      "outputs": [
        {
          "name": "",
          "type": "uint256"
        }
      ],
      "payable": false,
      "stateMutability": "view",
      "type": "function"
    },
    {
      "inputs": [],
      "payable": false,
      "stateMutability": "nonpayable",
      "type": "constructor"
    },
    {
      "constant": true,
      "inputs": [
        {
          "name": "exitingTxBytes",
          "type": "bytes"
        },
        {
          "name": "exitingTxInclusionProof",
          "type": "bytes"
        },
        {
          "name": "signature",
          "type": "bytes"
        },
        {
          "name": "blockRoot",
          "type": "bytes32"
        },
        {
          "name": "blk",
          "type": "uint256"
        }
      ],
      "name": "checkIncludedAndSigned",
      "outputs": [],
      "payable": false,
      "stateMutability": "view",
      "type": "function"
    },
    {
      "constant": true,
      "inputs": [
        {
          "name": "prevTxBytes",
          "type": "bytes"
        },
        {
          "name": "exitingTxBytes",
          "type": "bytes"
        },
        {
          "name": "prevTxInclusionProof",
          "type": "bytes"
        },
        {
          "name": "exitingTxInclusionProof",
          "type": "bytes"
        },
        {
          "name": "signature",
          "type": "bytes"
        },
        {
          "name": "block0root",
          "type": "bytes32"
        },
        {
          "name": "block1root",
          "type": "bytes32"
        },
        {
          "name": "blocks",
          "type": "uint256[2]"
        }
      ],
      "name": "checkBothIncludedAndSigned",
      "outputs": [],
      "payable": false,
      "stateMutability": "view",
      "type": "function"
    },
    {
      "constant": true,
      "inputs": [
        {
          "name": "slot",
          "type": "uint64"
        },
        {
          "name": "txHash",
          "type": "bytes32"
        },
        {
          "name": "root",
          "type": "bytes32"
        },
        {
          "name": "blockNumber",
          "type": "uint256"
        },
        {
          "name": "proof",
          "type": "bytes"
        }
      ],
      "name": "checkTxIncluded",
      "outputs": [],
      "payable": false,
      "stateMutability": "view",
      "type": "function"
    },
    {
      "constant": true,
      "inputs": [
        {
          "name": "slot",
          "type": "uint64"
        },
        {
          "name": "txBytes",
          "type": "bytes"
        },
        {
          "name": "blockNumber",
          "type": "uint256"
        },
        {
          "name": "exitPrevBlock",
          "type": "uint256"
        },
        {
          "name": "signature",
          "type": "bytes"
        },
        {
          "name": "proof",
          "type": "bytes"
        },
        {
          "name": "root",
          "type": "bytes32"
        }
      ],
      "name": "checkBefore",
      "outputs": [],
      "payable": false,
      "stateMutability": "view",
      "type": "function"
    },
    {
      "constant": true,
      "inputs": [
        {
          "name": "slot",
          "type": "uint64"
        },
        {
          "name": "blockNumber",
          "type": "uint256"
        },
        {
          "name": "exitBlock",
          "type": "uint256"
        },
        {
          "name": "challengingBlockNumber",
          "type": "uint256"
        },
        {
          "name": "challengeOwner",
          "type": "address"
        },
        {
          "name": "root",
          "type": "bytes32"
        },
        {
          "name": "txBytes",
          "type": "bytes"
        },
        {
          "name": "signature",
          "type": "bytes"
        },
        {
          "name": "proof",
          "type": "bytes"
        }
      ],
      "name": "checkResponse",
      "outputs": [],
      "payable": false,
      "stateMutability": "view",
      "type": "function"
    },
    {
      "constant": true,
      "inputs": [
        {
          "name": "slot",
          "type": "uint64"
        },
        {
          "name": "exitBlock",
          "type": "uint256"
        },
        {
          "name": "prevBlock",
          "type": "uint256"
        },
        {
          "name": "txBytes",
          "type": "bytes"
        },
        {
          "name": "blockNumber",
          "type": "uint256"
        },
        {
          "name": "prevOwner",
          "type": "address"
        },
        {
          "name": "root",
          "type": "bytes32"
        },
        {
          "name": "signature",
          "type": "bytes"
        },
        {
          "name": "proof",
          "type": "bytes"
        }
      ],
      "name": "checkBetween",
      "outputs": [],
      "payable": false,
      "stateMutability": "view",
      "type": "function"
    },
    {
      "constant": true,
      "inputs": [
        {
          "name": "slot",
          "type": "uint64"
        },
        {
          "name": "txBytes",
          "type": "bytes"
        },
        {
          "name": "exitBlockNumber",
          "type": "uint256"
        },
        {
          "name": "exitOwner",
          "type": "address"
        },
        {
          "name": "blockNumber",
          "type": "uint256"
        },
        {
          "name": "root",
          "type": "bytes32"
        },
        {
          "name": "signature",
          "type": "bytes"
        },
        {
          "name": "proof",
          "type": "bytes"
        }
      ],
      "name": "checkAfter",
      "outputs": [],
      "payable": false,
      "stateMutability": "view",
      "type": "function"
    },
    {
      "constant": true,
      "inputs": [
        {
          "name": "txHash",
          "type": "bytes32"
        },
        {
          "name": "root",
          "type": "bytes32"
        },
        {
          "name": "slot",
          "type": "uint64"
        },
        {
          "name": "proof",
          "type": "bytes"
        }
      ],
      "name": "checkMembership",
      "outputs": [
        {
          "name": "",
          "type": "bool"
        }
      ],
      "payable": false,
      "stateMutability": "view",
      "type": "function"
    }
  ],
  "bytecode": "0x60806040526103e860005534801561001657600080fd5b5061001f610081565b604051809103906000f08015801561003b573d6000803e3d6000fd5b50600160006101000a81548173ffffffffffffffffffffffffffffffffffffffff021916908373ffffffffffffffffffffffffffffffffffffffff160217905550610091565b60405161066180611fd883390190565b611f38806100a06000396000f300608060405260043610610099576000357c0100000000000000000000000000000000000000000000000000000000900463ffffffff1680631d678d411461009e5780632769b8df1461014157806338a9e0bc1461030d57806343772cbc14610338578063534b14391461048d5780636422ea26146105d8578063c72d970914610703578063eba1eb1714610810578063f586df6514610965575b600080fd5b3480156100aa57600080fd5b5061013f600480360381019080803567ffffffffffffffff1690602001909291908035600019169060200190929190803560001916906020019092919080359060200190929190803590602001908201803590602001908080601f0160208091040260200160405190810160405280939291908181526020018383808284378201915050505050509192919290505050610a16565b005b34801561014d57600080fd5b5061030b600480360381019080803590602001908201803590602001908080601f0160208091040260200160405190810160405280939291908181526020018383808284378201915050505050509192919290803590602001908201803590602001908080601f0160208091040260200160405190810160405280939291908181526020018383808284378201915050505050509192919290803590602001908201803590602001908080601f0160208091040260200160405190810160405280939291908181526020018383808284378201915050505050509192919290803590602001908201803590602001908080601f0160208091040260200160405190810160405280939291908181526020018383808284378201915050505050509192919290803590602001908201803590602001908080601f0160208091040260200160405190810160405280939291908181526020018383808284378201915050505050509192919290803560001916906020019092919080356000191690602001909291908060400190600280602002604051908101604052809291908260026020028082843782019150505050509192919290505050610acf565b005b34801561031957600080fd5b50610322610c44565b6040518082815260200191505060405180910390f35b34801561034457600080fd5b5061048b600480360381019080803567ffffffffffffffff1690602001909291908035906020019092919080359060200190929190803590602001908201803590602001908080601f016020809104026020016040519081016040528093929190818152602001838380828437820191505050505050919291929080359060200190929190803573ffffffffffffffffffffffffffffffffffffffff1690602001909291908035600019169060200190929190803590602001908201803590602001908080601f0160208091040260200160405190810160405280939291908181526020018383808284378201915050505050509192919290803590602001908201803590602001908080601f0160208091040260200160405190810160405280939291908181526020018383808284378201915050505050509192919290505050610c4a565b005b34801561049957600080fd5b506105d6600480360381019080803567ffffffffffffffff169060200190929190803590602001908201803590602001908080601f016020809104026020016040519081016040528093929190818152602001838380828437820191505050505050919291929080359060200190929190803573ffffffffffffffffffffffffffffffffffffffff169060200190929190803590602001909291908035600019169060200190929190803590602001908201803590602001908080601f0160208091040260200160405190810160405280939291908181526020018383808284378201915050505050509192919290803590602001908201803590602001908080601f0160208091040260200160405190810160405280939291908181526020018383808284378201915050505050509192919290505050610e42565b005b3480156105e457600080fd5b50610701600480360381019080803567ffffffffffffffff169060200190929190803590602001908201803590602001908080601f01602080910402602001604051908101604052809392919081815260200183838082843782019150505050505091929192908035906020019092919080359060200190929190803590602001908201803590602001908080601f0160208091040260200160405190810160405280939291908181526020018383808284378201915050505050509192919290803590602001908201803590602001908080601f01602080910402602001604051908101604052809392919081815260200183838082843782019150505050505091929192908035600019169060200190929190505050611083565b005b34801561070f57600080fd5b5061080e600480360381019080803590602001908201803590602001908080601f0160208091040260200160405190810160405280939291908181526020018383808284378201915050505050509192919290803590602001908201803590602001908080601f0160208091040260200160405190810160405280939291908181526020018383808284378201915050505050509192919290803590602001908201803590602001908080601f016020809104026020016040519081016040528093929190818152602001838380828437820191505050505050919291929080356000191690602001909291908035906020019092919050505061129d565b005b34801561081c57600080fd5b50610963600480360381019080803567ffffffffffffffff169060200190929190803590602001909291908035906020019092919080359060200190929190803573ffffffffffffffffffffffffffffffffffffffff1690602001909291908035600019169060200190929190803590602001908201803590602001908080601f0160208091040260200160405190810160405280939291908181526020018383808284378201915050505050509192919290803590602001908201803590602001908080601f0160208091040260200160405190810160405280939291908181526020018383808284378201915050505050509192919290803590602001908201803590602001908080601f0160208091040260200160405190810160405280939291908181526020018383808284378201915050505050509192919290505050611362565b005b34801561097157600080fd5b506109fc60048036038101908080356000191690602001909291908035600019169060200190929190803567ffffffffffffffff169060200190929190803590602001908201803590602001908080601f01602080910402602001604051908101604052809392919081815260200183838082843782019150505050505091929192905050506115cb565b604051808215151515815260200191505060405180910390f35b6000805483811515610a2457fe5b06141515610a475782600019168460001916141515610a4257600080fd5b610ac8565b610a53848487846115cb565b1515610ac7576040517f08c379a00000000000000000000000000000000000000000000000000000000081526004018080602001828103825260208152602001807f5478206e6f7420696e636c7564656420696e20636c61696d656420626c6f636b81525060200191505060405180910390fd5b5b5050505050565b610ad7611e64565b610adf611e64565b826001600281101515610aee57fe5b6020020151836000600281101515610b0257fe5b6020020151101515610b1357600080fd5b610b1c89611744565b9150610b278a611744565b9050806000015167ffffffffffffffff16826000015167ffffffffffffffff16141515610b5357600080fd5b610b748682602001518460400151600019166119bb9092919063ffffffff16565b1515610be8576040517f08c379a00000000000000000000000000000000000000000000000000000000081526004018080602001828103825260118152602001807f496e76616c6964207369676e617475726500000000000000000000000000000081525060200191505060405180910390fd5b610c108160000151826040015187866000600281101515610c0557fe5b60200201518c610a16565b610c388260000151836040015186866001600281101515610c2d57fe5b60200201518b610a16565b50505050505050505050565b60005481565b610c52611e64565b8589118015610c6057508588105b1515610cfa576040517f08c379a00000000000000000000000000000000000000000000000000000000081526004018080602001828103825260268152602001807f54782073686f756c64206265206265747765656e20746865206578697427732081526020017f626c6f636b73000000000000000000000000000000000000000000000000000081525060400191505060405180910390fd5b610d0387611744565b9050610d2283868360400151600019166119bb9092919063ffffffff16565b1515610d96576040517f08c379a00000000000000000000000000000000000000000000000000000000081526004018080602001828103825260118152602001807f496e76616c6964207369676e617475726500000000000000000000000000000081525060200191505060405180910390fd5b8967ffffffffffffffff16816000015167ffffffffffffffff16141515610e25576040517f08c379a000000000000000000000000000000000000000000000000000000000815260040180806020018281038252601e8152602001807f5478206973207265666572656e63696e6720616e6f7468657220736c6f74000081525060200191505060405180910390fd5b610e368a8260400151868986610a16565b50505050505050505050565b610e4a611e64565b8487101515610ec1576040517f08c379a00000000000000000000000000000000000000000000000000000000081526004018080602001828103825260208152602001807f54782073686f756c64206265206166746572207468652065786974426c6f636b81525060200191505060405180910390fd5b610eca88611744565b9050610ee983878360400151600019166119bb9092919063ffffffff16565b1515610f5d576040517f08c379a00000000000000000000000000000000000000000000000000000000081526004018080602001828103825260118152602001807f496e76616c6964207369676e617475726500000000000000000000000000000081525060200191505060405180910390fd5b8867ffffffffffffffff16816000015167ffffffffffffffff16141515610fec576040517f08c379a000000000000000000000000000000000000000000000000000000000815260040180806020018281038252601e8152602001807f5478206973207265666572656e63696e6720616e6f7468657220736c6f74000081525060200191505060405180910390fd5b868160600151141515611067576040517f08c379a00000000000000000000000000000000000000000000000000000000081526004018080602001828103825260128152602001807f4e6f74206120646972656374207370656e64000000000000000000000000000081525060200191505060405180910390fd5b611078898260400151868886610a16565b505050505050505050565b61108b611e64565b848611151515611129576040517f08c379a000000000000000000000000000000000000000000000000000000000815260040180806020018281038252602b8152602001807f54782073686f756c64206265206265666f72652074686520657869742773207081526020017f6172656e7420626c6f636b00000000000000000000000000000000000000000081525060400191505060405180910390fd5b61113287611744565b9050600073ffffffffffffffffffffffffffffffffffffffff16611167858360400151600019166119fe90919063ffffffff16565b73ffffffffffffffffffffffffffffffffffffffff16141515156111f3576040517f08c379a00000000000000000000000000000000000000000000000000000000081526004018080602001828103825260118152602001807f496e76616c6964207369676e617475726500000000000000000000000000000081525060200191505060405180910390fd5b8767ffffffffffffffff16816000015167ffffffffffffffff16141515611282576040517f08c379a000000000000000000000000000000000000000000000000000000000815260040180806020018281038252601e8152602001807f5478206973207265666572656e63696e6720616e6f7468657220736c6f74000081525060200191505060405180910390fd5b611293888260400151848987610a16565b5050505050505050565b6112a5611e64565b6112ae86611744565b90506112d18482602001518360400151600019166119bb9092919063ffffffff16565b1515611345576040517f08c379a00000000000000000000000000000000000000000000000000000000081526004018080602001828103825260118152602001807f496e76616c6964207369676e617475726500000000000000000000000000000081525060200191505060405180910390fd5b61135a81600001518260400151858589610a16565b505050505050565b61136a611e64565b61137384611744565b905061139283878360400151600019166119bb9092919063ffffffff16565b1515611406576040517f08c379a00000000000000000000000000000000000000000000000000000000081526004018080602001828103825260118152602001807f496e76616c6964207369676e617475726500000000000000000000000000000081525060200191505060405180910390fd5b8967ffffffffffffffff16816000015167ffffffffffffffff16141515611495576040517f08c379a000000000000000000000000000000000000000000000000000000000815260040180806020018281038252601e8152602001807f5478206973207265666572656e63696e6720616e6f7468657220736c6f74000081525060200191505060405180910390fd5b868911151561150c576040517f08c379a000000000000000000000000000000000000000000000000000000000815260040180806020018281038252601a8152602001807f4d75737420626520616674657220746865206368616c656e676500000000000081525060200191505060405180910390fd5b8789111515156115aa576040517f08c379a00000000000000000000000000000000000000000000000000000000081526004018080602001828103825260278152602001807f43616e6e6f7420726573706f6e6420776974682061207478206166746572207481526020017f686520657869740000000000000000000000000000000000000000000000000081525060400191505060405180910390fd5b6115bf81600001518260400151878c86610a16565b50505050505050505050565b6000600160009054906101000a900473ffffffffffffffffffffffffffffffffffffffff1673ffffffffffffffffffffffffffffffffffffffff1663f586df65868686866040518563ffffffff167c010000000000000000000000000000000000000000000000000000000002815260040180856000191660001916815260200184600019166000191681526020018367ffffffffffffffff1667ffffffffffffffff16815260200180602001828103825283818151815260200191508051906020019080838360005b838110156116b0578082015181840152602081019050611695565b50505050905090810190601f1680156116dd5780820380516001836020036101000a031916815260200191505b5095505050505050602060405180830381600087803b1580156116ff57600080fd5b505af1158015611713573d6000803e3d6000fd5b505050506040513d602081101561172957600080fd5b81019080805190602001909291905050509050949350505050565b61174c611e64565b6060611756611e64565b611772600461176486611a30565b611a6390919063ffffffff16565b915061179582600081518110151561178657fe5b90602001906020020151611af9565b816000019067ffffffffffffffff16908167ffffffffffffffff16815250506117d58260018151811015156117c657fe5b90602001906020020151611af9565b8160600181815250506117ff8260028151811015156117f057fe5b90602001906020020151611af9565b81608001818152505061182982600381518110151561181a57fe5b90602001906020020151611b1f565b816020019073ffffffffffffffffffffffffffffffffffffffff16908173ffffffffffffffffffffffffffffffffffffffff168152505060008160600151141561193a578060000151604051602001808267ffffffffffffffff1667ffffffffffffffff1678010000000000000000000000000000000000000000000000000281526008019150506040516020818303038152906040526040518082805190602001908083835b6020831015156118f557805182526020820191506020810190506020830392506118d0565b6001836020036101000a0380198251168184511680821785525050505050509050019150506040518091039020816040019060001916908160001916815250506119b1565b836040518082805190602001908083835b602083101515611970578051825260208201915060208101905060208303925061194b565b6001836020036101000a0380198251168184511680821785525050505050509050019150506040518091039020816040019060001916908160001916815250505b8092505050919050565b60006119c784846119fe565b73ffffffffffffffffffffffffffffffffffffffff168273ffffffffffffffffffffffffffffffffffffffff161490509392505050565b600080611a0e8460001916611b3f565b9050611a27838260001916611bfa90919063ffffffff16565b91505092915050565b611a38611eb7565b6000808351915060208401905060408051908101604052808281526020018381525092505050919050565b6060611a6d611ed1565b600083604051908082528060200260200182016040528015611aa957816020015b611a96611ef2565b815260200190600190039081611a8e5790505b509250611ab585611cf2565b91505b83811015611af157611ac982611d26565b8382815181101515611ad757fe5b906020019060200201819052508080600101915050611ab8565b505092915050565b6000806000611b0784611d6a565b91509150806020036101000a82510492505050919050565b600080611b2b83611d6a565b509050600c6101000a815104915050919050565b60008160405160200180807f19457468657265756d205369676e6564204d6573736167653a0a333200000000815250601c0182600019166000191681526020019150506040516020818303038152906040526040518082805190602001908083835b602083101515611bc65780518252602082019150602081019050602083039250611ba1565b6001836020036101000a03801982511681845116808217855250505050505090500191505060405180910390209050919050565b60008060008060418551141515611c145760009350611ce9565b6020850151925060408501519150606085015160001a9050601b8160ff161015611c3f57601b810190505b601b8160ff1614158015611c575750601c8160ff1614155b15611c655760009350611ce9565b600186828585604051600081526020016040526040518085600019166000191681526020018460ff1660ff1681526020018360001916600019168152602001826000191660001916815260200194505050505060206040516020810390808403906000865af1158015611cdc573d6000803e3d6000fd5b5050506020604051035193505b50505092915050565b611cfa611ed1565b6000611d0583611dd7565b83600001510190508282600001819052508082602001818152505050919050565b611d2e611eb7565b60008083602001519150611d4182611e2e565b905081836000018181525050808360200181815250508082018460200181815250505050919050565b600080600080600085600001519150815160001a92506080831015611d955781945060019350611dcf565b60b8831015611db35760018660200151039350600182019450611dce565b60b78303905080600187602001510303935060018183010194505b5b505050915091565b600080600083600001519050805160001a91506080821015611dfc5760009250611e27565b60b8821080611e18575060c08210158015611e17575060f882105b5b15611e265760019250611e27565b5b5050919050565b600080825160001a90506080811015611e4a5760019150611e5e565b60b8811015611e5d576001608082030191505b5b50919050565b60a060405190810160405280600067ffffffffffffffff168152602001600073ffffffffffffffffffffffffffffffffffffffff1681526020016000801916815260200160008152602001600081525090565b604080519081016040528060008152602001600081525090565b606060405190810160405280611ee5611ef2565b8152602001600081525090565b6040805190810160405280600081526020016000815250905600a165627a7a72305820c56ebd185c600c9124d1bbdc946542eae7c35e89a52ccc91bcee6ba9080402a50029608060405234801561001057600080fd5b507f290decd9548b62a8d60345a988386fc84ba6bc95484008f6362f93160ef3e56360010260008060418110151561004457fe5b0181600019169055506100686001604061006d640100000000026401000000009004565b610175565b60008290505b8160ff168160ff161115156101705760006001820360ff1660418110151561009757fe5b015460006001830360ff166041811015156100ae57fe5b01546040516020018083600019166000191681526020018260001916600019168152602001925050506040516020818303038152906040526040518082805190602001908083835b60208310151561011b57805182526020820191506020810190506020830392506100f6565b6001836020036101000a038019825116818451168082178552505050505050905001915050604051809103902060008260ff1660418110151561015a57fe5b0181600019169055508080600101915050610073565b505050565b6104dd806101846000396000f300608060405260043610610057576000357c0100000000000000000000000000000000000000000000000000000000900463ffffffff16806348419ad81461005c578063509a7e54146100a5578063f586df651461014c575b600080fd5b34801561006857600080fd5b50610087600480360381019080803590602001909291905050506101fd565b60405180826000191660001916815260200191505060405180910390f35b3480156100b157600080fd5b5061012e6004803603810190808035600019169060200190929190803567ffffffffffffffff169060200190929190803590602001908201803590602001908080601f0160208091040260200160405190810160405280939291908181526020018383808284378201915050505050509192919290505050610217565b60405180826000191660001916815260200191505060405180910390f35b34801561015857600080fd5b506101e360048036038101908080356000191690602001909291908035600019169060200190929190803567ffffffffffffffff169060200190929190803590602001908201803590602001908080601f016020809104026020016040519081016040528093929190818152602001838380828437820191505050505050919291929050505061048b565b604051808215151515815260200191505060405180910390f35b60008160418110151561020c57fe5b016000915090505481565b60008060008060008060006020600889510381151561023257fe5b061480156102435750610808875111155b151561024e57600080fd5b8893506008925060186101000a6020880151049150600090505b604060ff1681101561047c57600060028367ffffffffffffffff1681151561028c57fe5b0667ffffffffffffffff1614156102b5576000816041811015156102ac57fe5b015494506102d6565b6020830192508261ffff168751101515156102cf57600080fd5b8287015194505b600060028967ffffffffffffffff168115156102ee57fe5b0667ffffffffffffffff1614156103a05783856040516020018083600019166000191681526020018260001916600019168152602001925050506040516020818303038152906040526040518082805190602001908083835b60208310151561036c5780518252602082019150602081019050602083039250610347565b6001836020036101000a0380198251168184511680821785525050505050509050019150506040518091039020935061043d565b84846040516020018083600019166000191681526020018260001916600019168152602001925050506040516020818303038152906040526040518082805190602001908083835b60208310151561040d57805182526020820191506020810190506020830392506103e8565b6001836020036101000a038019825116818451168082178552505050505050905001915050604051809103902093505b60028267ffffffffffffffff1681151561045357fe5b04915060028867ffffffffffffffff1681151561046c57fe5b0497508080600101915050610268565b83955050505050509392505050565b600080610499868585610217565b905084600019168160001916149150509493505050505600a165627a7a7230582000a4e1f008d237273682c94d26c68588b3964e4d62583cde7db9ae6a48c958940029",
  "source": "// Copyright Loom Network 2018 - All rights reserved, Dual licensed on GPLV3\n// Learn more about Loom DappChains at https://loomx.io\n// All derivitive works of this code must incluse this copyright header on every file\n\npragma solidity ^0.4.24;\n\n\nimport \"./Transaction.sol\";\nimport \"./SparseMerkleTree.sol\";\nimport \"./ECVerify.sol\";\n\n\ncontract DoChecks {\n\n    uint256 public childBlockInterval = 1000;\n    SparseMerkleTree smt;\n\n    constructor() public {\n        smt = new SparseMerkleTree();\n    }\n\n    using Transaction for bytes;\n    using ECVerify for bytes32;\n\n    /******************** PROOF CHECKING ********************/\n\n    function checkIncludedAndSigned(\n        bytes exitingTxBytes,\n        bytes exitingTxInclusionProof,\n        bytes signature,\n        bytes32 blockRoot,\n        uint256 blk)\n        public\n        view\n    {\n        Transaction.TX memory txData = exitingTxBytes.getTx();\n\n        // Deposit transactions need to be signed by their owners\n        // e.g. Alice signs a transaction to Alice\n        require(txData.hash.ecverify(signature, txData.owner), \"Invalid signature\");\n        checkTxIncluded(txData.slot, txData.hash, blockRoot, blk, exitingTxInclusionProof);\n    }\n\n    function checkBothIncludedAndSigned(\n        bytes prevTxBytes, bytes exitingTxBytes,\n        bytes prevTxInclusionProof, bytes exitingTxInclusionProof,\n        bytes signature,\n        bytes32 block0root, bytes32 block1root,\n        uint256[2] blocks)\n        public\n        view\n    {\n        require(blocks[0] < blocks[1]);\n\n        Transaction.TX memory exitingTxData = exitingTxBytes.getTx();\n        Transaction.TX memory prevTxData = prevTxBytes.getTx();\n\n        // Both transactions need to be referring to the same slot\n        require(exitingTxData.slot == prevTxData.slot);\n\n        // The exiting transaction must be signed by the previous transaciton's owner\n        require(exitingTxData.hash.ecverify(signature, prevTxData.owner), \"Invalid signature\");\n\n        // Both transactions must be included in their respective blocks\n        checkTxIncluded(prevTxData.slot, prevTxData.hash, block0root, blocks[0], prevTxInclusionProof);\n        checkTxIncluded(exitingTxData.slot, exitingTxData.hash, block1root, blocks[1], exitingTxInclusionProof);\n    }\n\n    function checkTxIncluded(\n        uint64 slot,\n        bytes32 txHash,\n        bytes32 root,\n        uint256 blockNumber,\n        bytes proof\n    )\n        public\n        view\n    {\n\n        if (blockNumber % childBlockInterval != 0) {\n            // Check against block root for deposit block numbers\n            require(txHash == root);\n        } else {\n            // Check against merkle tree for all other block numbers\n            require(\n                checkMembership(\n                    txHash,\n                    root,\n                    slot,\n                    proof\n            ),\n            \"Tx not included in claimed block\"\n            );\n        }\n    }\n\n    /******************** CHALLENGES ********************/\n\n    // Must challenge with a tx in between\n    function checkBefore(\n        uint64 slot,\n        bytes txBytes,\n        uint blockNumber,\n        uint exitPrevBlock,\n        bytes signature,\n        bytes proof,\n        bytes32 root\n\n    )\n        public\n        view\n    {\n        require(\n            blockNumber <= exitPrevBlock,\n            \"Tx should be before the exit's parent block\"\n        );\n\n        Transaction.TX memory txData = txBytes.getTx();\n        require(txData.hash.recover(signature) != address(0x0), \"Invalid signature\");\n        require(txData.slot == slot, \"Tx is referencing another slot\");\n        checkTxIncluded(slot, txData.hash, root, blockNumber, proof);\n    }\n\n    function checkResponse(\n        uint64 slot,\n        uint256 blockNumber,\n        uint256 exitBlock,\n        uint256 challengingBlockNumber,\n        address challengeOwner,\n        bytes32 root,\n        bytes txBytes,\n        bytes signature,\n        bytes proof\n    )\n        public\n        view\n    {\n        Transaction.TX memory txData = txBytes.getTx();\n        require(txData.hash.ecverify(signature, challengeOwner), \"Invalid signature\");\n        require(txData.slot == slot, \"Tx is referencing another slot\");\n        require(blockNumber > challengingBlockNumber, \"Must be after the chalenge\");\n        require(blockNumber <= exitBlock, \"Cannot respond with a tx after the exit\");\n        checkTxIncluded(txData.slot, txData.hash, root, blockNumber, proof);\n    }\n\n    function checkBetween(\n        uint64 slot,\n        uint256 exitBlock,\n        uint256 prevBlock,\n        bytes txBytes,\n        uint blockNumber,\n        address prevOwner,\n        bytes32 root,\n        bytes signature,\n        bytes proof\n    )\n        public\n        view\n    {\n        require(\n            exitBlock > blockNumber &&\n            prevBlock < blockNumber,\n            \"Tx should be between the exit's blocks\"\n        );\n\n        Transaction.TX memory txData = txBytes.getTx();\n        require(txData.hash.ecverify(signature, prevOwner), \"Invalid signature\");\n        require(txData.slot == slot, \"Tx is referencing another slot\");\n        checkTxIncluded(slot, txData.hash, root, blockNumber, proof);\n    }\n\n    function checkAfter(\n        uint64 slot,\n        bytes txBytes,\n        uint exitBlockNumber,\n        address exitOwner,\n        uint blockNumber,\n        bytes32 root,\n        bytes signature,\n        bytes proof\n    )\n        public\n        view\n    {\n\n        require(\n            exitBlockNumber < blockNumber,\n            \"Tx should be after the exitBlock\"\n        );\n\n        Transaction.TX memory txData = txBytes.getTx();\n        require(txData.hash.ecverify(signature, exitOwner), \"Invalid signature\");\n        require(txData.slot == slot, \"Tx is referencing another slot\");\n        require(txData.prevBlock == exitBlockNumber, \"Not a direct spend\");\n        checkTxIncluded(slot, txData.hash, root, blockNumber, proof);\n    }\n\n    /******************** HELPERS ********************/\n\n    function checkMembership(\n        bytes32 txHash,\n        bytes32 root,\n        uint64 slot,\n        bytes proof) public view returns (bool)\n    {\n        return smt.checkMembership(\n            txHash,\n            root,\n            slot,\n            proof);\n    }\n\n}\n",
  "sourcePath": "/home/adriatik/bl/plasma-base/contracts/DoChecks.sol",
  "compiler": {
    "name": "solc",
    "version": "0.4.24+commit.e67f0147.Emscripten.clang"
  },
  "schemaVersion": "2.0.1",
  "updatedAt": "2019-01-11T14:25:13.995Z"
}