{
  "contractName": "PlasmaContract",
  "abi": [
    {
      "constant": true,
      "inputs": [
        {
          "name": "",
          "type": "address"
        }
      ],
      "name": "balances",
      "outputs": [
        {
          "name": "bonded",
          "type": "uint256"
        },
        {
          "name": "withdrawable",
          "type": "uint256"
        }
      ],
      "payable": false,
      "stateMutability": "view",
      "type": "function"
    },
    {
      "constant": true,
      "inputs": [],
      "name": "childBlockInterval",
      "outputs": [
        {
          "name": "",
          "type": "uint256"
        }
      ],
      "payable": false,
      "stateMutability": "view",
      "type": "function"
    },
    {
      "constant": true,
      "inputs": [],
      "name": "bond_amount",
      "outputs": [
        {
          "name": "",
          "type": "uint256"
        }
      ],
      "payable": false,
      "stateMutability": "view",
      "type": "function"
    },
    {
      "constant": true,
      "inputs": [],
      "name": "numCoins",
      "outputs": [
        {
          "name": "",
          "type": "uint256"
        }
      ],
      "payable": false,
      "stateMutability": "view",
      "type": "function"
    },
    {
      "constant": true,
      "inputs": [],
      "name": "currentBlock",
      "outputs": [
        {
          "name": "",
          "type": "uint256"
        }
      ],
      "payable": false,
      "stateMutability": "view",
      "type": "function"
    },
    {
      "constant": true,
      "inputs": [
        {
          "name": "",
          "type": "uint256"
        }
      ],
      "name": "childChain",
      "outputs": [
        {
          "name": "root",
          "type": "bytes32"
        },
        {
          "name": "createdAt",
          "type": "uint256"
        }
      ],
      "payable": false,
      "stateMutability": "view",
      "type": "function"
    },
    {
      "inputs": [],
      "payable": false,
      "stateMutability": "nonpayable",
      "type": "constructor"
    },
    {
      "anonymous": false,
      "inputs": [
        {
          "indexed": true,
          "name": "slot",
          "type": "uint64"
        },
        {
          "indexed": false,
          "name": "blockNumber",
          "type": "uint256"
        },
        {
          "indexed": false,
          "name": "denomination",
          "type": "uint256"
        },
        {
          "indexed": true,
          "name": "from",
          "type": "address"
        }
      ],
      "name": "Deposit",
      "type": "event"
    },
    {
      "anonymous": false,
      "inputs": [
        {
          "indexed": false,
          "name": "blockNumber",
          "type": "uint256"
        },
        {
          "indexed": false,
          "name": "root",
          "type": "bytes32"
        },
        {
          "indexed": false,
          "name": "timestamp",
          "type": "uint256"
        }
      ],
      "name": "SubmittedBlock",
      "type": "event"
    },
    {
      "anonymous": false,
      "inputs": [
        {
          "indexed": true,
          "name": "slot",
          "type": "uint64"
        },
        {
          "indexed": true,
          "name": "owner",
          "type": "address"
        }
      ],
      "name": "StartedExit",
      "type": "event"
    },
    {
      "anonymous": false,
      "inputs": [
        {
          "indexed": true,
          "name": "slot",
          "type": "uint64"
        },
        {
          "indexed": false,
          "name": "txHash",
          "type": "bytes32"
        },
        {
          "indexed": false,
          "name": "challengingBlockNumber",
          "type": "uint256"
        }
      ],
      "name": "ChallengedExit",
      "type": "event"
    },
    {
      "anonymous": false,
      "inputs": [
        {
          "indexed": true,
          "name": "slot",
          "type": "uint64"
        }
      ],
      "name": "RespondedExitChallenge",
      "type": "event"
    },
    {
      "anonymous": false,
      "inputs": [
        {
          "indexed": true,
          "name": "slot",
          "type": "uint64"
        },
        {
          "indexed": true,
          "name": "owner",
          "type": "address"
        }
      ],
      "name": "CoinReset",
      "type": "event"
    },
    {
      "anonymous": false,
      "inputs": [
        {
          "indexed": true,
          "name": "slot",
          "type": "uint64"
        },
        {
          "indexed": false,
          "name": "owner",
          "type": "address"
        }
      ],
      "name": "FinalizedExit",
      "type": "event"
    },
    {
      "anonymous": false,
      "inputs": [
        {
          "indexed": true,
          "name": "from",
          "type": "address"
        },
        {
          "indexed": false,
          "name": "amount",
          "type": "uint256"
        }
      ],
      "name": "FreedBond",
      "type": "event"
    },
    {
      "anonymous": false,
      "inputs": [
        {
          "indexed": true,
          "name": "from",
          "type": "address"
        },
        {
          "indexed": true,
          "name": "to",
          "type": "address"
        },
        {
          "indexed": false,
          "name": "amount",
          "type": "uint256"
        }
      ],
      "name": "SlashedBond",
      "type": "event"
    },
    {
      "anonymous": false,
      "inputs": [
        {
          "indexed": true,
          "name": "from",
          "type": "address"
        },
        {
          "indexed": false,
          "name": "amount",
          "type": "uint256"
        }
      ],
      "name": "WithdrewBonds",
      "type": "event"
    },
    {
      "anonymous": false,
      "inputs": [
        {
          "indexed": true,
          "name": "owner",
          "type": "address"
        },
        {
          "indexed": true,
          "name": "slot",
          "type": "uint64"
        },
        {
          "indexed": false,
          "name": "uid",
          "type": "uint256"
        },
        {
          "indexed": false,
          "name": "denomination",
          "type": "uint256"
        }
      ],
      "name": "Withdrew",
      "type": "event"
    },
    {
      "constant": false,
      "inputs": [
        {
          "name": "blockNumber",
          "type": "uint256"
        },
        {
          "name": "root",
          "type": "bytes32"
        }
      ],
      "name": "submitBlock",
      "outputs": [],
      "payable": false,
      "stateMutability": "nonpayable",
      "type": "function"
    },
    {
      "constant": false,
      "inputs": [
        {
          "name": "amount",
          "type": "uint256"
        }
      ],
      "name": "participate",
      "outputs": [],
      "payable": false,
      "stateMutability": "nonpayable",
      "type": "function"
    },
    {
      "constant": false,
      "inputs": [
        {
          "name": "slot",
          "type": "uint64"
        },
        {
          "name": "prevTxBytes",
          "type": "bytes"
        },
        {
          "name": "exitingTxBytes",
          "type": "bytes"
        },
        {
          "name": "prevTxInclusionProof",
          "type": "bytes"
        },
        {
          "name": "exitingTxInclusionProof",
          "type": "bytes"
        },
        {
          "name": "signature",
          "type": "bytes"
        },
        {
          "name": "blocks",
          "type": "uint256[2]"
        }
      ],
      "name": "startExit",
      "outputs": [],
      "payable": true,
      "stateMutability": "payable",
      "type": "function"
    },
    {
      "constant": false,
      "inputs": [
        {
          "name": "slot",
          "type": "uint64"
        }
      ],
      "name": "finalizeExit",
      "outputs": [],
      "payable": false,
      "stateMutability": "nonpayable",
      "type": "function"
    },
    {
      "constant": false,
      "inputs": [
        {
          "name": "slots",
          "type": "uint64[]"
        }
      ],
      "name": "finalizeExits",
      "outputs": [],
      "payable": false,
      "stateMutability": "nonpayable",
      "type": "function"
    },
    {
      "constant": false,
      "inputs": [
        {
          "name": "slot",
          "type": "uint64"
        }
      ],
      "name": "cancelExit",
      "outputs": [],
      "payable": false,
      "stateMutability": "nonpayable",
      "type": "function"
    },
    {
      "constant": false,
      "inputs": [
        {
          "name": "slot",
          "type": "uint64"
        }
      ],
      "name": "withdraw",
      "outputs": [],
      "payable": false,
      "stateMutability": "nonpayable",
      "type": "function"
    },
    {
      "constant": false,
      "inputs": [
        {
          "name": "slot",
          "type": "uint64"
        },
        {
          "name": "txBytes",
          "type": "bytes"
        },
        {
          "name": "txInclusionProof",
          "type": "bytes"
        },
        {
          "name": "signature",
          "type": "bytes"
        },
        {
          "name": "blockNumber",
          "type": "uint256"
        }
      ],
      "name": "challengeBefore",
      "outputs": [],
      "payable": true,
      "stateMutability": "payable",
      "type": "function"
    },
    {
      "constant": false,
      "inputs": [
        {
          "name": "slot",
          "type": "uint64"
        },
        {
          "name": "challengingTxHash",
          "type": "bytes32"
        },
        {
          "name": "respondingBlockNumber",
          "type": "uint256"
        },
        {
          "name": "respondingTransaction",
          "type": "bytes"
        },
        {
          "name": "proof",
          "type": "bytes"
        },
        {
          "name": "signature",
          "type": "bytes"
        }
      ],
      "name": "respondChallengeBefore",
      "outputs": [],
      "payable": false,
      "stateMutability": "nonpayable",
      "type": "function"
    },
    {
      "constant": false,
      "inputs": [
        {
          "name": "slot",
          "type": "uint64"
        },
        {
          "name": "challengingBlockNumber",
          "type": "uint256"
        },
        {
          "name": "challengingTransaction",
          "type": "bytes"
        },
        {
          "name": "proof",
          "type": "bytes"
        },
        {
          "name": "signature",
          "type": "bytes"
        }
      ],
      "name": "challengeBetween",
      "outputs": [],
      "payable": false,
      "stateMutability": "nonpayable",
      "type": "function"
    },
    {
      "constant": false,
      "inputs": [
        {
          "name": "slot",
          "type": "uint64"
        },
        {
          "name": "challengingBlockNumber",
          "type": "uint256"
        },
        {
          "name": "challengingTransaction",
          "type": "bytes"
        },
        {
          "name": "proof",
          "type": "bytes"
        },
        {
          "name": "signature",
          "type": "bytes"
        }
      ],
      "name": "challengeAfter",
      "outputs": [],
      "payable": false,
      "stateMutability": "nonpayable",
      "type": "function"
    },
    {
      "constant": false,
      "inputs": [],
      "name": "withdrawBonds",
      "outputs": [],
      "payable": false,
      "stateMutability": "nonpayable",
      "type": "function"
    },
    {
      "constant": false,
      "inputs": [
        {
          "name": "amount",
          "type": "uint256"
        },
        {
          "name": "_maturity_period",
          "type": "uint256"
        },
        {
          "name": "_challenge_window",
          "type": "uint256"
        }
      ],
      "name": "setMaturityAndBond",
      "outputs": [],
      "payable": false,
      "stateMutability": "nonpayable",
      "type": "function"
    },
    {
      "constant": false,
      "inputs": [
        {
          "name": "_pause",
          "type": "bool"
        }
      ],
      "name": "pause",
      "outputs": [],
      "payable": false,
      "stateMutability": "nonpayable",
      "type": "function"
    },
    {
      "constant": false,
      "inputs": [
        {
          "name": "_erc20_DOCK_addr",
          "type": "address"
        },
        {
          "name": "_erc721_DPT_addr",
          "type": "address"
        },
        {
          "name": "_do_checks_addr",
          "type": "address"
        }
      ],
      "name": "setAddresses",
      "outputs": [],
      "payable": false,
      "stateMutability": "nonpayable",
      "type": "function"
    },
    {
      "constant": true,
      "inputs": [],
      "name": "getMaturityAndBond",
      "outputs": [
        {
          "name": "",
          "type": "uint256"
        },
        {
          "name": "",
          "type": "uint256"
        },
        {
          "name": "",
          "type": "uint256"
        }
      ],
      "payable": false,
      "stateMutability": "view",
      "type": "function"
    },
    {
      "constant": true,
      "inputs": [
        {
          "name": "slot",
          "type": "uint64"
        }
      ],
      "name": "getPlasmaCoin",
      "outputs": [
        {
          "name": "",
          "type": "uint256"
        },
        {
          "name": "",
          "type": "uint256"
        },
        {
          "name": "",
          "type": "uint256"
        },
        {
          "name": "",
          "type": "address"
        },
        {
          "name": "",
          "type": "uint8"
        }
      ],
      "payable": false,
      "stateMutability": "view",
      "type": "function"
    },
    {
      "constant": true,
      "inputs": [
        {
          "name": "slot",
          "type": "uint64"
        },
        {
          "name": "txHash",
          "type": "bytes32"
        }
      ],
      "name": "getChallenge",
      "outputs": [
        {
          "name": "",
          "type": "address"
        },
        {
          "name": "",
          "type": "address"
        },
        {
          "name": "",
          "type": "bytes32"
        },
        {
          "name": "",
          "type": "uint256"
        }
      ],
      "payable": false,
      "stateMutability": "view",
      "type": "function"
    },
    {
      "constant": true,
      "inputs": [
        {
          "name": "slot",
          "type": "uint64"
        }
      ],
      "name": "getExit",
      "outputs": [
        {
          "name": "",
          "type": "address"
        },
        {
          "name": "",
          "type": "uint256"
        },
        {
          "name": "",
          "type": "uint256"
        },
        {
          "name": "",
          "type": "uint8"
        },
        {
          "name": "",
          "type": "uint256"
        }
      ],
      "payable": false,
      "stateMutability": "view",
      "type": "function"
    }
  ],
  "bytecode": "0x608060405260006009556103e8600b556000600c5534801561002057600080fd5b5033600360016101000a81548173ffffffffffffffffffffffffffffffffffffffff021916908373ffffffffffffffffffffffffffffffffffffffff160217905550615dd080620000726000396000f300608060405260043610610149576000357c0100000000000000000000000000000000000000000000000000000000900463ffffffff16806302329a291461014e578063058a65081461017d578063149be19f146102065780631cc6ffa01461024157806327e235e314610258578063363bf964146102b657806338a9e0bc146103395780634d69a8a1146103645780635bd25a77146103fb57806374c0a56f14610434578063750f0acc1461046f57806378417214146104a65780637eb7b0f6146104dd57806381686e6b14610559578063845c93061461062757806397d9765414610654578063a97375951461067f578063cbd8da63146106aa578063cef1645f146106e1578063d157796e14610722578063e12ed13c146107c3578063e9a067c0146107ee578063f6d0ba1a1461089a578063f8353cf014610923578063f95643b1146109c4575b600080fd5b34801561015a57600080fd5b5061017b600480360381019080803515159060200190929190505050610a14565b005b34801561018957600080fd5b50610204600480360381019080803567ffffffffffffffff16906020019092919080359060200190929190803590602001908201803590602001919091929391929390803590602001908201803590602001919091929391929390803590602001908201803590602001919091929391929390505050610a8d565b005b34801561021257600080fd5b5061023f600480360381019080803590602001909291908035600019169060200190929190505050610c0c565b005b34801561024d57600080fd5b50610256610d20565b005b34801561026457600080fd5b50610299600480360381019080803573ffffffffffffffffffffffffffffffffffffffff169060200190929190505050610e47565b604051808381526020018281526020019250505060405180910390f35b3480156102c257600080fd5b50610337600480360381019080803573ffffffffffffffffffffffffffffffffffffffff169060200190929190803573ffffffffffffffffffffffffffffffffffffffff169060200190929190803573ffffffffffffffffffffffffffffffffffffffff169060200190929190505050610e6b565b005b34801561034557600080fd5b5061034e610f8f565b6040518082815260200191505060405180910390f35b34801561037057600080fd5b506103f9600480360381019080803567ffffffffffffffff169060200190929190803560001916906020019092919080359060200190929190803590602001908201803590602001919091929391929390803590602001908201803590602001919091929391929390803590602001908201803590602001919091929391929390505050610f95565b005b34801561040757600080fd5b50610410611281565b60405180848152602001838152602001828152602001935050505060405180910390f35b34801561044057600080fd5b5061046d60048036038101908080359060200190820180359060200191909192939192939050505061129a565b005b34801561047b57600080fd5b506104a4600480360381019080803567ffffffffffffffff1690602001909291905050506112ea565b005b3480156104b257600080fd5b506104db600480360381019080803567ffffffffffffffff169060200190929190505050611a1f565b005b610557600480360381019080803567ffffffffffffffff16906020019092919080359060200190820180359060200191909192939192939080359060200190820180359060200191909192939192939080359060200190820180359060200191909192939192939080359060200190929190505050611ead565b005b34801561056557600080fd5b5061059c600480360381019080803567ffffffffffffffff169060200190929190803560001916906020019092919050505061214e565b604051808573ffffffffffffffffffffffffffffffffffffffff1673ffffffffffffffffffffffffffffffffffffffff1681526020018473ffffffffffffffffffffffffffffffffffffffff1673ffffffffffffffffffffffffffffffffffffffff168152602001836000191660001916815260200182815260200194505050505060405180910390f35b34801561063357600080fd5b50610652600480360381019080803590602001909291905050506122d8565b005b34801561066057600080fd5b5061066961248c565b6040518082815260200191505060405180910390f35b34801561068b57600080fd5b50610694612492565b6040518082815260200191505060405180910390f35b3480156106b657600080fd5b506106df600480360381019080803567ffffffffffffffff169060200190929190505050612498565b005b3480156106ed57600080fd5b50610720600480360381019080803590602001909291908035906020019092919080359060200190929190505050612713565b005b34801561072e57600080fd5b50610757600480360381019080803567ffffffffffffffff169060200190929190505050612789565b604051808673ffffffffffffffffffffffffffffffffffffffff1673ffffffffffffffffffffffffffffffffffffffff1681526020018581526020018481526020018360028111156107a557fe5b60ff1681526020018281526020019550505050505060405180910390f35b3480156107cf57600080fd5b506107d8612905565b6040518082815260200191505060405180910390f35b610898600480360381019080803567ffffffffffffffff1690602001909291908035906020019082018035906020019190919293919293908035906020019082018035906020019190919293919293908035906020019082018035906020019190919293919293908035906020019082018035906020019190919293919293908035906020019082018035906020019190919293919293908060400190919291929050505061290b565b005b3480156108a657600080fd5b50610921600480360381019080803567ffffffffffffffff16906020019092919080359060200190929190803590602001908201803590602001919091929391929390803590602001908201803590602001919091929391929390803590602001908201803590602001919091929391929390505050612c98565b005b34801561092f57600080fd5b50610958600480360381019080803567ffffffffffffffff169060200190929190505050612e17565b604051808681526020018581526020018481526020018373ffffffffffffffffffffffffffffffffffffffff1673ffffffffffffffffffffffffffffffffffffffff1681526020018260028111156109ac57fe5b60ff1681526020019550505050505060405180910390f35b3480156109d057600080fd5b506109ef60048036038101908080359060200190929190505050613013565b6040518083600019166000191681526020018281526020019250505060405180910390f35b600360019054906101000a900473ffffffffffffffffffffffffffffffffffffffff1673ffffffffffffffffffffffffffffffffffffffff163373ffffffffffffffffffffffffffffffffffffffff16141515610a7057600080fd5b80600360006101000a81548160ff02191690831515021790555050565b876001806002811115610a9c57fe5b600a60008467ffffffffffffffff1667ffffffffffffffff16815260200190815260200160002060000160009054906101000a900460ff166002811115610adf57fe5b141515610b54576040517f08c379a000000000000000000000000000000000000000000000000000000000815260040180806020018281038252600b8152602001807f57726f6e6720737461746500000000000000000000000000000000000000000081525060200191505060405180910390fd5b610bf78a89898080601f0160208091040260200160405190810160405280939291908181526020018383808284378201915050505050508b87878080601f0160208091040260200160405190810160405280939291908181526020018383808284378201915050505050508a8a8080601f016020809104026020016040519081016040528093929190818152602001838380828437820191505050505050613037565b610c008a613326565b50505050505050505050565b600360019054906101000a900473ffffffffffffffffffffffffffffffffffffffff1673ffffffffffffffffffffffffffffffffffffffff163373ffffffffffffffffffffffffffffffffffffffff16141515610c6857600080fd5b600c548210151515610c7957600080fd5b81600c8190555060408051908101604052808260001916815260200142815250600d6000600c54815260200190815260200160002060008201518160000190600019169055602082015181600101559050507f6d91cd6ccac8368394df514e6aee19a55264f5ab49a891af91ca86da27bedd4f600c548242604051808481526020018360001916600019168152602001828152602001935050505060405180910390a15050565b6000600760003373ffffffffffffffffffffffffffffffffffffffff1673ffffffffffffffffffffffffffffffffffffffff1681526020019081526020016000206001015490506000600760003373ffffffffffffffffffffffffffffffffffffffff1673ffffffffffffffffffffffffffffffffffffffff168152602001908152602001600020600101819055503373ffffffffffffffffffffffffffffffffffffffff166108fc829081150290604051600060405180830381858888f19350505050158015610df5573d6000803e3d6000fd5b503373ffffffffffffffffffffffffffffffffffffffff167fba49a755e2e4831fb6ef34b384178b03af45679532c9ac5a2199b27b4dddea8d826040518082815260200191505060405180910390a250565b60076020528060005260406000206000915090508060000154908060010154905082565b600360019054906101000a900473ffffffffffffffffffffffffffffffffffffffff1673ffffffffffffffffffffffffffffffffffffffff163373ffffffffffffffffffffffffffffffffffffffff16141515610ec757600080fd5b82600460006101000a81548173ffffffffffffffffffffffffffffffffffffffff021916908373ffffffffffffffffffffffffffffffffffffffff16021790555081600560006101000a81548173ffffffffffffffffffffffffffffffffffffffff021916908373ffffffffffffffffffffffffffffffffffffffff16021790555080600660006101000a81548173ffffffffffffffffffffffffffffffffffffffff021916908373ffffffffffffffffffffffffffffffffffffffff160217905550505050565b600b5481565b6000610fd089600860008d67ffffffffffffffff1667ffffffffffffffff1681526020019081526020016000206134ff90919063ffffffff16565b151561106a576040517f08c379a00000000000000000000000000000000000000000000000000000000081526004018080602001828103825260248152602001807f526573706f6e64696e6720746f206e6f6e206578697374696e67206368616c6c81526020017f656e67650000000000000000000000000000000000000000000000000000000081525060400191505060405180910390fd5b6110a389600860008d67ffffffffffffffff1667ffffffffffffffff16815260200190815260200160002061353b90919063ffffffff16565b90506111498a89838a8a8080601f01602080910402602001604051908101604052809392919081815260200183838082843782019150505050505089898080601f01602080910402602001604051908101604052809392919081815260200183838082843782019150505050505088888080601f0160208091040260200160405190810160405280939291908181526020018383808284378201915050505050506135be565b6111b8600860008c67ffffffffffffffff1667ffffffffffffffff1681526020019081526020016000208281548110151561118057fe5b906000526020600020906004020160010160009054906101000a900473ffffffffffffffffffffffffffffffffffffffff1633613913565b6001600a60008c67ffffffffffffffff1667ffffffffffffffff16815260200190815260200160002060000160006101000a81548160ff021916908360028111156111ff57fe5b021790555061123d89600860008d67ffffffffffffffff1667ffffffffffffffff168152602001908152602001600020613ab890919063ffffffff16565b508967ffffffffffffffff167f7deeb80e1644537d3ba4f917cfcbaba62b54354e9f2598d6885d52e359885e2560405160405180910390a250505050505050505050565b6000806000600154600254600054925092509250909192565b600080838390509150600090505b818110156112e4576112d784848381811015156112c157fe5b9050602002013567ffffffffffffffff16611a1f565b80806001019150506112a8565b50505050565b6000806112f5615b23565b83600280600281111561130457fe5b600a60008467ffffffffffffffff1667ffffffffffffffff16815260200190815260200160002060000160009054906101000a900460ff16600281111561134757fe5b1415156113bc576040517f08c379a000000000000000000000000000000000000000000000000000000000815260040180806020018281038252600b8152602001807f57726f6e6720737461746500000000000000000000000000000000000000000081525060200191505060405180910390fd5b3373ffffffffffffffffffffffffffffffffffffffff16600a60008867ffffffffffffffff1667ffffffffffffffff16815260200190815260200160002060000160019054906101000a900473ffffffffffffffffffffffffffffffffffffffff1673ffffffffffffffffffffffffffffffffffffffff161415156114a9576040517f08c379a00000000000000000000000000000000000000000000000000000000081526004018080602001828103825260188152602001807f596f7520646f206e6f74206f776e2074686174205554584f000000000000000081525060200191505060405180910390fd5b600a60008767ffffffffffffffff1667ffffffffffffffff168152602001908152602001600020600701549450600a60008767ffffffffffffffff1667ffffffffffffffff168152602001908152602001600020600801549350600a60008767ffffffffffffffff1667ffffffffffffffff16815260200190815260200160002060c060405190810160405290816000820160009054906101000a900460ff16600281111561155457fe5b600281111561155f57fe5b81526020016000820160019054906101000a900473ffffffffffffffffffffffffffffffffffffffff1673ffffffffffffffffffffffffffffffffffffffff1673ffffffffffffffffffffffffffffffffffffffff1681526020016001820160c060405190810160405290816000820160009054906101000a900473ffffffffffffffffffffffffffffffffffffffff1673ffffffffffffffffffffffffffffffffffffffff1673ffffffffffffffffffffffffffffffffffffffff1681526020016001820160009054906101000a900473ffffffffffffffffffffffffffffffffffffffff1673ffffffffffffffffffffffffffffffffffffffff1673ffffffffffffffffffffffffffffffffffffffff168152602001600282015481526020016003820154815260200160048201548152602001600582015481525050815260200160078201548152602001600882015481526020016009820154815250509250600a60008767ffffffffffffffff1667ffffffffffffffff168152602001908152602001600020600080820160006101000a81549060ff02191690556000820160016101000a81549073ffffffffffffffffffffffffffffffffffffffff021916905560018201600080820160006101000a81549073ffffffffffffffffffffffffffffffffffffffff02191690556001820160006101000a81549073ffffffffffffffffffffffffffffffffffffffff0219169055600282016000905560038201600090556004820160009055600582016000905550506007820160009055600882016000905560098201600090555050600460009054906101000a900473ffffffffffffffffffffffffffffffffffffffff1673ffffffffffffffffffffffffffffffffffffffff1663a9059cbb3385608001516040518363ffffffff167c0100000000000000000000000000000000000000000000000000000000028152600401808373ffffffffffffffffffffffffffffffffffffffff1673ffffffffffffffffffffffffffffffffffffffff16815260200182815260200192505050602060405180830381600087803b15801561187d57600080fd5b505af1158015611891573d6000803e3d6000fd5b505050506040513d60208110156118a757600080fd5b810190808051906020019092919050505050600560009054906101000a900473ffffffffffffffffffffffffffffffffffffffff1673ffffffffffffffffffffffffffffffffffffffff16639dbead42876040518263ffffffff167c0100000000000000000000000000000000000000000000000000000000028152600401808267ffffffffffffffff1667ffffffffffffffff168152602001915050602060405180830381600087803b15801561195e57600080fd5b505af1158015611972573d6000803e3d6000fd5b505050506040513d602081101561198857600080fd5b8101908080519060200190929190505050506119b06001600954613d6a90919063ffffffff16565b6009819055508567ffffffffffffffff163373ffffffffffffffffffffffffffffffffffffffff167f5048d3674bcc1168a6489da4b4c2a15981fe0687557e6c23537c22cb222783bc8787604051808381526020018281526020019250505060405180910390a3505050505050565b6000806000600a60008567ffffffffffffffff1667ffffffffffffffff168152602001908152602001600020925060016002811115611a5a57fe5b8360000160009054906101000a900460ff166002811115611a7757fe5b141515611a8357611ea7565b60015483600101600201544203111515611a9c57611ea7565b611aa584613d8b565b9150811515611d72578260000160019054906101000a900473ffffffffffffffffffffffffffffffffffffffff1690508260010160010160009054906101000a900473ffffffffffffffffffffffffffffffffffffffff168360000160016101000a81548173ffffffffffffffffffffffffffffffffffffffff021916908373ffffffffffffffffffffffffffffffffffffffff16021790555060028360000160006101000a81548160ff02191690836002811115611b6057fe5b0217905550600560009054906101000a900473ffffffffffffffffffffffffffffffffffffffff1673ffffffffffffffffffffffffffffffffffffffff16632ea0dfe1828560000160019054906101000a900473ffffffffffffffffffffffffffffffffffffffff16876040518463ffffffff167c0100000000000000000000000000000000000000000000000000000000028152600401808473ffffffffffffffffffffffffffffffffffffffff1673ffffffffffffffffffffffffffffffffffffffff1681526020018373ffffffffffffffffffffffffffffffffffffffff1673ffffffffffffffffffffffffffffffffffffffff1681526020018267ffffffffffffffff1667ffffffffffffffff1681526020019350505050600060405180830381600087803b158015611c9657600080fd5b505af1158015611caa573d6000803e3d6000fd5b50505050611cdb8360000160019054906101000a900473ffffffffffffffffffffffffffffffffffffffff16614014565b8367ffffffffffffffff167f432647a5fb9bdea356d78f8e3d83b6ddc2e78b4e4a702ac7eb968f7fe03d9dda8460000160019054906101000a900473ffffffffffffffffffffffffffffffffffffffff16604051808273ffffffffffffffffffffffffffffffffffffffff1673ffffffffffffffffffffffffffffffffffffffff16815260200191505060405180910390a2611e0b565b60008360000160006101000a81548160ff02191690836002811115611d9357fe5b02179055508260000160019054906101000a900473ffffffffffffffffffffffffffffffffffffffff1673ffffffffffffffffffffffffffffffffffffffff168467ffffffffffffffff167f35cc9c4d0d9a2ce748d131382582af17dbf1f0d72167ea7906ea3f18597b31a460405160405180910390a35b600a60008567ffffffffffffffff1667ffffffffffffffff168152602001908152602001600020600101600080820160006101000a81549073ffffffffffffffffffffffffffffffffffffffff02191690556001820160006101000a81549073ffffffffffffffffffffffffffffffffffffffff0219169055600282016000905560038201600090556004820160009055600582016000905550505b50505050565b60005434141515611ebd57600080fd5b611f1234600760003373ffffffffffffffffffffffffffffffffffffffff1673ffffffffffffffffffffffffffffffffffffffff168152602001908152602001600020600001546141a190919063ffffffff16565b600760003373ffffffffffffffffffffffffffffffffffffffff1673ffffffffffffffffffffffffffffffffffffffff16815260200190815260200160002060000181905550876001806002811115611f6757fe5b600a60008467ffffffffffffffff1667ffffffffffffffff16815260200190815260200160002060000160009054906101000a900460ff166002811115611faa57fe5b14151561201f576040517f08c379a000000000000000000000000000000000000000000000000000000000815260040180806020018281038252600b8152602001807f57726f6e6720737461746500000000000000000000000000000000000000000081525060200191505060405180910390fd5b6120c28a8a8a8080601f0160208091040260200160405190810160405280939291908181526020018383808284378201915050505050508588888080601f0160208091040260200160405190810160405280939291908181526020018383808284378201915050505050508b8b8080601f0160208091040260200160405190810160405280939291908181526020018383808284378201915050505050506141c2565b6121428a6121018b8b8080601f016020809104026020016040519081016040528093929190818152602001838380828437820191505050505050614436565b8561213d8d8d8080601f016020809104026020016040519081016040528093929190818152602001838380828437820191505050505050614481565b61461b565b50505050505050505050565b600080600080600061215e615b82565b61219787600860008b67ffffffffffffffff1667ffffffffffffffff16815260200190815260200160002061353b90919063ffffffff16565b9150600860008967ffffffffffffffff1667ffffffffffffffff168152602001908152602001600020828154811015156121cd57fe5b9060005260206000209060040201608060405190810160405290816000820160009054906101000a900473ffffffffffffffffffffffffffffffffffffffff1673ffffffffffffffffffffffffffffffffffffffff1673ffffffffffffffffffffffffffffffffffffffff1681526020016001820160009054906101000a900473ffffffffffffffffffffffffffffffffffffffff1673ffffffffffffffffffffffffffffffffffffffff1673ffffffffffffffffffffffffffffffffffffffff168152602001600282015460001916600019168152602001600382015481525050905080600001518160200151826040015183606001519550955095509550505092959194509250565b600460009054906101000a900473ffffffffffffffffffffffffffffffffffffffff1673ffffffffffffffffffffffffffffffffffffffff166323b872dd3330846040518463ffffffff167c0100000000000000000000000000000000000000000000000000000000028152600401808473ffffffffffffffffffffffffffffffffffffffff1673ffffffffffffffffffffffffffffffffffffffff1681526020018373ffffffffffffffffffffffffffffffffffffffff1673ffffffffffffffffffffffffffffffffffffffff1681526020018281526020019350505050602060405180830381600087803b1580156123d157600080fd5b505af11580156123e5573d6000803e3d6000fd5b505050506040513d60208110156123fb57600080fd5b81019080805190602001909291905050501515612480576040517f08c379a000000000000000000000000000000000000000000000000000000000815260040180806020018281038252600f8152602001807f5472616e73666572206661696c6564000000000000000000000000000000000081525060200191505060405180910390fd5b612489816148d6565b50565b60005481565b60095481565b3373ffffffffffffffffffffffffffffffffffffffff16600a60008367ffffffffffffffff1667ffffffffffffffff16815260200190815260200160002060010160010160009054906101000a900473ffffffffffffffffffffffffffffffffffffffff1673ffffffffffffffffffffffffffffffffffffffff16141515612588576040517f08c379a00000000000000000000000000000000000000000000000000000000081526004018080602001828103825260118152602001807f556e617574686f72697a6564207573657200000000000000000000000000000081525060200191505060405180910390fd5b600a60008267ffffffffffffffff1667ffffffffffffffff168152602001908152602001600020600101600080820160006101000a81549073ffffffffffffffffffffffffffffffffffffffff02191690556001820160006101000a81549073ffffffffffffffffffffffffffffffffffffffff0219169055600282016000905560038201600090556004820160009055600582016000905550506000600a60008367ffffffffffffffff1667ffffffffffffffff16815260200190815260200160002060000160006101000a81548160ff0219169083600281111561266a57fe5b021790555061267833614014565b600a60008267ffffffffffffffff1667ffffffffffffffff16815260200190815260200160002060000160019054906101000a900473ffffffffffffffffffffffffffffffffffffffff1673ffffffffffffffffffffffffffffffffffffffff168167ffffffffffffffff167f35cc9c4d0d9a2ce748d131382582af17dbf1f0d72167ea7906ea3f18597b31a460405160405180910390a350565b600360019054906101000a900473ffffffffffffffffffffffffffffffffffffffff1673ffffffffffffffffffffffffffffffffffffffff163373ffffffffffffffffffffffffffffffffffffffff1614151561276f57600080fd5b816001819055508060028190555082600081905550505050565b6000806000806000612799615bda565b600a60008867ffffffffffffffff1667ffffffffffffffff16815260200190815260200160002060010160c060405190810160405290816000820160009054906101000a900473ffffffffffffffffffffffffffffffffffffffff1673ffffffffffffffffffffffffffffffffffffffff1673ffffffffffffffffffffffffffffffffffffffff1681526020016001820160009054906101000a900473ffffffffffffffffffffffffffffffffffffffff1673ffffffffffffffffffffffffffffffffffffffff1673ffffffffffffffffffffffffffffffffffffffff1681526020016002820154815260200160038201548152602001600482015481526020016005820154815250509050806020015181608001518260a00151600a60008b67ffffffffffffffff1667ffffffffffffffff16815260200190815260200160002060000160009054906101000a900460ff168460400151955095509550955095505091939590929450565b600c5481565b6000543414151561291b57600080fd5b61297034600760003373ffffffffffffffffffffffffffffffffffffffff1673ffffffffffffffffffffffffffffffffffffffff168152602001908152602001600020600001546141a190919063ffffffff16565b600760003373ffffffffffffffffffffffffffffffffffffffff1673ffffffffffffffffffffffffffffffffffffffff168152602001908152602001600020600001819055508b60008060028111156129c557fe5b600a60008467ffffffffffffffff1667ffffffffffffffff16815260200190815260200160002060000160009054906101000a900460ff166002811115612a0857fe5b141515612a7d576040517f08c379a000000000000000000000000000000000000000000000000000000000815260040180806020018281038252600b8152602001807f57726f6e6720737461746500000000000000000000000000000000000000000081525060200191505060405180910390fd5b612ab88b8b8080601f016020809104026020016040519081016040528093929190818152602001838380828437820191505050505050614436565b73ffffffffffffffffffffffffffffffffffffffff163373ffffffffffffffffffffffffffffffffffffffff16141515612af157600080fd5b612c1e8d8d8080601f0160208091040260200160405190810160405280939291908181526020018383808284378201915050505050508c8c8080601f0160208091040260200160405190810160405280939291908181526020018383808284378201915050505050508b8b8080601f0160208091040260200160405190810160405280939291908181526020018383808284378201915050505050508a8a8080601f01602080910402602001604051908101604052809392919081815260200183838082843782019150505050505089898080601f0160208091040260200160405190810160405280939291908181526020018383808284378201915050505050508860028060200260405190810160405280929190826002602002808284378201915050505050614dc4565b612c888e612c5d8f8f8080601f016020809104026020016040519081016040528093929190818152602001838380828437820191505050505050614436565b856002806020026040519081016040528092919082600260200280828437820191505050505061539c565b5050505050505050505050505050565b876001806002811115612ca757fe5b600a60008467ffffffffffffffff1667ffffffffffffffff16815260200190815260200160002060000160009054906101000a900460ff166002811115612cea57fe5b141515612d5f576040517f08c379a000000000000000000000000000000000000000000000000000000000815260040180806020018281038252600b8152602001807f57726f6e6720737461746500000000000000000000000000000000000000000081525060200191505060405180910390fd5b612e028a8a8a8a8080601f01602080910402602001604051908101604052809392919081815260200183838082843782019150505050505089898080601f01602080910402602001604051908101604052809392919081815260200183838082843782019150505050505088888080601f01602080910402602001604051908101604052809392919081815260200183838082843782019150505050505061557e565b612e0b8a613326565b50505050505050505050565b6000806000806000612e27615b23565b600a60008867ffffffffffffffff1667ffffffffffffffff16815260200190815260200160002060c060405190810160405290816000820160009054906101000a900460ff166002811115612e7857fe5b6002811115612e8357fe5b81526020016000820160019054906101000a900473ffffffffffffffffffffffffffffffffffffffff1673ffffffffffffffffffffffffffffffffffffffff1673ffffffffffffffffffffffffffffffffffffffff1681526020016001820160c060405190810160405290816000820160009054906101000a900473ffffffffffffffffffffffffffffffffffffffff1673ffffffffffffffffffffffffffffffffffffffff1673ffffffffffffffffffffffffffffffffffffffff1681526020016001820160009054906101000a900473ffffffffffffffffffffffffffffffffffffffff1673ffffffffffffffffffffffffffffffffffffffff1673ffffffffffffffffffffffffffffffffffffffff16815260200160028201548152602001600382015481526020016004820154815260200160058201548152505081526020016007820154815260200160088201548152602001600982015481525050905080606001518160a00151826080015183602001518460000151955095509550955095505091939590929450565b600d6020528060005260406000206000915090508060000154908060010154905082565b600660009054906101000a900473ffffffffffffffffffffffffffffffffffffffff1673ffffffffffffffffffffffffffffffffffffffff1663534b14398686600a60008a67ffffffffffffffff1667ffffffffffffffff16815260200190815260200160002060010160050154600a60008b67ffffffffffffffff1667ffffffffffffffff16815260200190815260200160002060010160010160009054906101000a900473ffffffffffffffffffffffffffffffffffffffff1688600d60008b81526020019081526020016000206000015489896040518963ffffffff167c0100000000000000000000000000000000000000000000000000000000028152600401808967ffffffffffffffff1667ffffffffffffffff168152602001806020018881526020018773ffffffffffffffffffffffffffffffffffffffff1673ffffffffffffffffffffffffffffffffffffffff1681526020018681526020018560001916600019168152602001806020018060200184810384528b818151815260200191508051906020019080838360005b838110156131e65780820151818401526020810190506131cb565b50505050905090810190601f1680156132135780820380516001836020036101000a031916815260200191505b50848103835286818151815260200191508051906020019080838360005b8381101561324c578082015181840152602081019050613231565b50505050905090810190601f1680156132795780820380516001836020036101000a031916815260200191505b50848103825285818151815260200191508051906020019080838360005b838110156132b2578082015181840152602081019050613297565b50505050905090810190601f1680156132df5780820380516001836020036101000a031916815260200191505b509b505050505050505050505050600060405180830381600087803b15801561330757600080fd5b505af115801561331b573d6000803e3d6000fd5b505050505050505050565b61337d600a60008367ffffffffffffffff1667ffffffffffffffff16815260200190815260200160002060010160010160009054906101000a900473ffffffffffffffffffffffffffffffffffffffff1633613913565b6000600a60008367ffffffffffffffff1667ffffffffffffffff16815260200190815260200160002060000160006101000a81548160ff021916908360028111156133c457fe5b0217905550600a60008267ffffffffffffffff1667ffffffffffffffff168152602001908152602001600020600101600080820160006101000a81549073ffffffffffffffffffffffffffffffffffffffff02191690556001820160006101000a81549073ffffffffffffffffffffffffffffffffffffffff021916905560028201600090556003820160009055600482016000905560058201600090555050600a60008267ffffffffffffffff1667ffffffffffffffff16815260200190815260200160002060000160019054906101000a900473ffffffffffffffffffffffffffffffffffffffff1673ffffffffffffffffffffffffffffffffffffffff168167ffffffffffffffff167f35cc9c4d0d9a2ce748d131382582af17dbf1f0d72167ea7906ea3f18597b31a460405160405180910390a350565b60008061350c848461353b565b90507fffffffffffffffffffffffffffffffffffffffffffffffffffffffffffffffff81141591505092915050565b600080600090505b8380549050811015613593578260001916848281548110151561356257fe5b906000526020600020906004020160020154600019161415613586578091506135b7565b8080600101915050613543565b7fffffffffffffffffffffffffffffffffffffffffffffffffffffffffffffffff91505b5092915050565b600660009054906101000a900473ffffffffffffffffffffffffffffffffffffffff1673ffffffffffffffffffffffffffffffffffffffff1663eba1eb178787600a60008b67ffffffffffffffff1667ffffffffffffffff16815260200190815260200160002060010160050154600860008c67ffffffffffffffff1667ffffffffffffffff1681526020019081526020016000208981548110151561366057fe5b906000526020600020906004020160030154600860008d67ffffffffffffffff1667ffffffffffffffff1681526020019081526020016000208a8154811015156136a657fe5b906000526020600020906004020160000160009054906101000a900473ffffffffffffffffffffffffffffffffffffffff16600d60008d8152602001908152602001600020600001548a898b6040518a63ffffffff167c0100000000000000000000000000000000000000000000000000000000028152600401808a67ffffffffffffffff1667ffffffffffffffff1681526020018981526020018881526020018781526020018673ffffffffffffffffffffffffffffffffffffffff1673ffffffffffffffffffffffffffffffffffffffff1681526020018560001916600019168152602001806020018060200180602001848103845287818151815260200191508051906020019080838360005b838110156137d15780820151818401526020810190506137b6565b50505050905090810190601f1680156137fe5780820380516001836020036101000a031916815260200191505b50848103835286818151815260200191508051906020019080838360005b8381101561383757808201518184015260208101905061381c565b50505050905090810190601f1680156138645780820380516001836020036101000a031916815260200191505b50848103825285818151815260200191508051906020019080838360005b8381101561389d578082015181840152602081019050613882565b50505050905090810190601f1680156138ca5780820380516001836020036101000a031916815260200191505b509c50505050505050505050505050600060405180830381600087803b1580156138f357600080fd5b505af1158015613907573d6000803e3d6000fd5b50505050505050505050565b61396a600054600760008573ffffffffffffffffffffffffffffffffffffffff1673ffffffffffffffffffffffffffffffffffffffff16815260200190815260200160002060000154613d6a90919063ffffffff16565b600760008473ffffffffffffffffffffffffffffffffffffffff1673ffffffffffffffffffffffffffffffffffffffff16815260200190815260200160002060000181905550613a07600054600760008473ffffffffffffffffffffffffffffffffffffffff1673ffffffffffffffffffffffffffffffffffffffff168152602001908152602001600020600101546141a190919063ffffffff16565b600760008373ffffffffffffffffffffffffffffffffffffffff1673ffffffffffffffffffffffffffffffffffffffff168152602001908152602001600020600101819055508073ffffffffffffffffffffffffffffffffffffffff168273ffffffffffffffffffffffffffffffffffffffff167fbd6bf2f753dc1a7dee94a7abd7645adc6c228c2af17fd72d9104674cc5d212736000546040518082815260200191505060405180910390a35050565b600080613ac3615b82565b613acd858561353b565b91507fffffffffffffffffffffffffffffffffffffffffffffffffffffffffffffffff821415613b005760009250613d62565b846001868054905003815481101515613b1557fe5b9060005260206000209060040201608060405190810160405290816000820160009054906101000a900473ffffffffffffffffffffffffffffffffffffffff1673ffffffffffffffffffffffffffffffffffffffff1673ffffffffffffffffffffffffffffffffffffffff1681526020016001820160009054906101000a900473ffffffffffffffffffffffffffffffffffffffff1673ffffffffffffffffffffffffffffffffffffffff1673ffffffffffffffffffffffffffffffffffffffff1681526020016002820154600019166000191681526020016003820154815250509050808583815481101515613c0857fe5b906000526020600020906004020160008201518160000160006101000a81548173ffffffffffffffffffffffffffffffffffffffff021916908373ffffffffffffffffffffffffffffffffffffffff16021790555060208201518160010160006101000a81548173ffffffffffffffffffffffffffffffffffffffff021916908373ffffffffffffffffffffffffffffffffffffffff1602179055506040820151816002019060001916905560608201518160030155905050846001868054905003815481101515613cd657fe5b9060005260206000209060040201600080820160006101000a81549073ffffffffffffffffffffffffffffffffffffffff02191690556001820160006101000a81549073ffffffffffffffffffffffffffffffffffffffff021916905560028201600090556003820160009055505060018581818054905003915081613d5c9190615c3d565b50600192505b505092915050565b600080838311151515613d7c57600080fd5b82840390508091505092915050565b600080600080600860008667ffffffffffffffff1667ffffffffffffffff168152602001908152602001600020805490509250600090505b8281101561400c576000600102600860008767ffffffffffffffff1667ffffffffffffffff16815260200190815260200160002082815481101515613e0457fe5b90600052602060002090600402016002015460001916141515613fff57811515613ee957613ee4600a60008767ffffffffffffffff1667ffffffffffffffff16815260200190815260200160002060010160010160009054906101000a900473ffffffffffffffffffffffffffffffffffffffff16600860008867ffffffffffffffff1667ffffffffffffffff16815260200190815260200160002083815481101515613ead57fe5b906000526020600020906004020160010160009054906101000a900473ffffffffffffffffffffffffffffffffffffffff16613913565b600191505b613f57600860008767ffffffffffffffff1667ffffffffffffffff16815260200190815260200160002082815481101515613f2057fe5b906000526020600020906004020160010160009054906101000a900473ffffffffffffffffffffffffffffffffffffffff16614014565b600860008667ffffffffffffffff1667ffffffffffffffff16815260200190815260200160002081815481101515613f8b57fe5b9060005260206000209060040201600080820160006101000a81549073ffffffffffffffffffffffffffffffffffffffff02191690556001820160006101000a81549073ffffffffffffffffffffffffffffffffffffffff0219169055600282016000905560038201600090555050600193505b8080600101915050613dc3565b505050919050565b61406b600054600760008473ffffffffffffffffffffffffffffffffffffffff1673ffffffffffffffffffffffffffffffffffffffff16815260200190815260200160002060000154613d6a90919063ffffffff16565b600760008373ffffffffffffffffffffffffffffffffffffffff1673ffffffffffffffffffffffffffffffffffffffff16815260200190815260200160002060000181905550614108600054600760008473ffffffffffffffffffffffffffffffffffffffff1673ffffffffffffffffffffffffffffffffffffffff168152602001908152602001600020600101546141a190919063ffffffff16565b600760008373ffffffffffffffffffffffffffffffffffffffff1673ffffffffffffffffffffffffffffffffffffffff168152602001908152602001600020600101819055508073ffffffffffffffffffffffffffffffffffffffff167f5406cdbb33189b887da81a90c7ff307f3af1854b2504d0bde438b8bb5b7d8b526000546040518082815260200191505060405180910390a250565b60008082840190508381101515156141b857600080fd5b8091505092915050565b6000600a60008767ffffffffffffffff1667ffffffffffffffff168152602001908152602001600020600101600401549050600660009054906101000a900473ffffffffffffffffffffffffffffffffffffffff1673ffffffffffffffffffffffffffffffffffffffff16636422ea26878787858888600d60008d8152602001908152602001600020600001546040518863ffffffff167c0100000000000000000000000000000000000000000000000000000000028152600401808867ffffffffffffffff1667ffffffffffffffff168152602001806020018781526020018681526020018060200180602001856000191660001916815260200184810384528a818151815260200191508051906020019080838360005b838110156142f65780820151818401526020810190506142db565b50505050905090810190601f1680156143235780820380516001836020036101000a031916815260200191505b50848103835287818151815260200191508051906020019080838360005b8381101561435c578082015181840152602081019050614341565b50505050905090810190601f1680156143895780820380516001836020036101000a031916815260200191505b50848103825286818151815260200191508051906020019080838360005b838110156143c25780820151818401526020810190506143a7565b50505050905090810190601f1680156143ef5780820380516001836020036101000a031916815260200191505b509a5050505050505050505050600060405180830381600087803b15801561441657600080fd5b505af115801561442a573d6000803e3d6000fd5b50505050505050505050565b600060606144566004614448856158a2565b6158d590919063ffffffff16565b905061447981600381518110151561446a57fe5b9060200190602002015161596b565b915050919050565b600060606000806144a46004614496876158a2565b6158d590919063ffffffff16565b92506144c78360008151811015156144b857fe5b9060200190602002015161598b565b91506144ea8360018151811015156144db57fe5b9060200190602002015161598b565b905060008114156145ad5781604051602001808267ffffffffffffffff1667ffffffffffffffff1678010000000000000000000000000000000000000000000000000281526008019150506040516020818303038152906040526040518082805190602001908083835b6020831015156145795780518252602082019150602081019050602083039250614554565b6001836020036101000a03801982511681845116808217855250505050505090500191505060405180910390209350614613565b846040518082805190602001908083835b6020831015156145e357805182526020820191506020810190506020830392506145be565b6001836020036101000a038019825116818451168082178552505050505050905001915050604051809103902093505b505050919050565b600254600a60008667ffffffffffffffff1667ffffffffffffffff1681526020019081526020016000206001016002015401421115151561465b57600080fd5b61469481600860008767ffffffffffffffff1667ffffffffffffffff1681526020019081526020016000206134ff90919063ffffffff16565b15151561472f576040517f08c379a00000000000000000000000000000000000000000000000000000000081526004018080602001828103825260268152602001807f5472616e73616374696f6e207573656420666f72206368616c6c656e6765206181526020017f6c7265616479000000000000000000000000000000000000000000000000000081525060400191505060405180910390fd5b600860008567ffffffffffffffff1667ffffffffffffffff1681526020019081526020016000206080604051908101604052808573ffffffffffffffffffffffffffffffffffffffff1681526020013373ffffffffffffffffffffffffffffffffffffffff16815260200183600019168152602001848152509080600181540180825580915050906001820390600052602060002090600402016000909192909190915060008201518160000160006101000a81548173ffffffffffffffffffffffffffffffffffffffff021916908373ffffffffffffffffffffffffffffffffffffffff16021790555060208201518160010160006101000a81548173ffffffffffffffffffffffffffffffffffffffff021916908373ffffffffffffffffffffffffffffffffffffffff16021790555060408201518160020190600019169055606082015181600301555050508367ffffffffffffffff167f057d34b2360e71f2764a7189966401bc058621905c0bef7123a6bdfe9a13284b82846040518083600019166000191681526020018281526020019250505060405180910390a250505050565b6000806000600360009054906101000a900460ff16151515614986576040517f08c379a00000000000000000000000000000000000000000000000000000000081526004018080602001828103825260288152602001807f436f6e7472616374206973206e6f7420616363657074696e67206d6f7265206481526020017f65706f736974732100000000000000000000000000000000000000000000000081525060400191505060405180910390fd5b600954334243604051602001808581526020018473ffffffffffffffffffffffffffffffffffffffff1673ffffffffffffffffffffffffffffffffffffffff166c010000000000000000000000000281526014018381526020018281526020019450505050506040516020818303038152906040526040518082805190602001908083835b602083101515614a305780518252602082019150602081019050602083039250614a0b565b6001836020036101000a0380198251168184511680821785525050505050509050019150506040518091039020780100000000000000000000000000000000000000000000000090049250600560009054906101000a900473ffffffffffffffffffffffffffffffffffffffff1673ffffffffffffffffffffffffffffffffffffffff16632893c5b033856040518363ffffffff167c0100000000000000000000000000000000000000000000000000000000028152600401808373ffffffffffffffffffffffffffffffffffffffff1673ffffffffffffffffffffffffffffffffffffffff1681526020018267ffffffffffffffff1667ffffffffffffffff16815260200192505050600060405180830381600087803b158015614b5457600080fd5b505af1158015614b68573d6000803e3d6000fd5b50505050614b826001600c546141a190919063ffffffff16565b600c81905550339150600a60008467ffffffffffffffff1667ffffffffffffffff16815260200190815260200160002090508267ffffffffffffffff168160070181905550838160080181905550600c548160090181905550818160000160016101000a81548173ffffffffffffffffffffffffffffffffffffffff021916908373ffffffffffffffffffffffffffffffffffffffff16021790555060008160000160006101000a81548160ff02191690836002811115614c3f57fe5b0217905550604080519081016040528084604051602001808267ffffffffffffffff1667ffffffffffffffff1678010000000000000000000000000000000000000000000000000281526008019150506040516020818303038152906040526040518082805190602001908083835b602083101515614cd35780518252602082019150602081019050602083039250614cae565b6001836020036101000a038019825116818451168082178552505050505050905001915050604051809103902060001916815260200142815250600d6000600c54815260200190815260200160002060008201518160000190600019169055602082015181600101559050508173ffffffffffffffffffffffffffffffffffffffff168367ffffffffffffffff167f3ab76e72b723375c7c21154d03ea859843b89c61677d0e90121152c4ea9872db600c5487604051808381526020018281526020019250505060405180910390a3614db860016009546141a190919063ffffffff16565b60098190555050505050565b6000600b54826001600281101515614dd857fe5b6020020151811515614de657fe5b0614151561502f57600660009054906101000a900473ffffffffffffffffffffffffffffffffffffffff1673ffffffffffffffffffffffffffffffffffffffff1663c72d9709868585600d6000876001600281101515614e4257fe5b6020020151815260200190815260200160002060000154866001600281101515614e6857fe5b60200201516040518663ffffffff167c0100000000000000000000000000000000000000000000000000000000028152600401808060200180602001806020018660001916600019168152602001858152602001848103845289818151815260200191508051906020019080838360005b83811015614ef4578082015181840152602081019050614ed9565b50505050905090810190601f168015614f215780820380516001836020036101000a031916815260200191505b50848103835288818151815260200191508051906020019080838360005b83811015614f5a578082015181840152602081019050614f3f565b50505050905090810190601f168015614f875780820380516001836020036101000a031916815260200191505b50848103825287818151815260200191508051906020019080838360005b83811015614fc0578082015181840152602081019050614fa5565b50505050905090810190601f168015614fed5780820380516001836020036101000a031916815260200191505b5098505050505050505050600060405180830381600087803b15801561501257600080fd5b505af1158015615026573d6000803e3d6000fd5b50505050615394565b600660009054906101000a900473ffffffffffffffffffffffffffffffffffffffff1673ffffffffffffffffffffffffffffffffffffffff16632769b8df8787878787600d600089600060028110151561508557fe5b6020020151815260200190815260200160002060000154600d60008a60016002811015156150af57fe5b6020020151815260200190815260200160002060000154896040518963ffffffff167c01000000000000000000000000000000000000000000000000000000000281526004018080602001806020018060200180602001806020018960001916600019168152602001886000191660001916815260200187600260200280838360005b8381101561514d578082015181840152602081019050615132565b5050505090500186810386528e818151815260200191508051906020019080838360005b8381101561518c578082015181840152602081019050615171565b50505050905090810190601f1680156151b95780820380516001836020036101000a031916815260200191505b5086810385528d818151815260200191508051906020019080838360005b838110156151f25780820151818401526020810190506151d7565b50505050905090810190601f16801561521f5780820380516001836020036101000a031916815260200191505b5086810384528c818151815260200191508051906020019080838360005b8381101561525857808201518184015260208101905061523d565b50505050905090810190601f1680156152855780820380516001836020036101000a031916815260200191505b5086810383528b818151815260200191508051906020019080838360005b838110156152be5780820151818401526020810190506152a3565b50505050905090810190601f1680156152eb5780820380516001836020036101000a031916815260200191505b5086810382528a818151815260200191508051906020019080838360005b83811015615324578082015181840152602081019050615309565b50505050905090810190601f1680156153515780820380516001836020036101000a031916815260200191505b509d5050505050505050505050505050600060405180830381600087803b15801561537b57600080fd5b505af115801561538f573d6000803e3d6000fd5b505050505b505050505050565b6000600a60008567ffffffffffffffff1667ffffffffffffffff168152602001908152602001600020905060c0604051908101604052808473ffffffffffffffffffffffffffffffffffffffff1681526020013373ffffffffffffffffffffffffffffffffffffffff16815260200142815260200134815260200183600060028110151561542657fe5b6020020151815260200183600160028110151561543f57fe5b60200201518152508160010160008201518160000160006101000a81548173ffffffffffffffffffffffffffffffffffffffff021916908373ffffffffffffffffffffffffffffffffffffffff16021790555060208201518160010160006101000a81548173ffffffffffffffffffffffffffffffffffffffff021916908373ffffffffffffffffffffffffffffffffffffffff16021790555060408201518160020155606082015181600301556080820151816004015560a0820151816005015590505060018160000160006101000a81548160ff0219169083600281111561552557fe5b02179055503373ffffffffffffffffffffffffffffffffffffffff168467ffffffffffffffff167fbaf912dedc1b0ee4647f945b0432e694bce1aa2c4e21052d977687641587495660405160405180910390a350505050565b600660009054906101000a900473ffffffffffffffffffffffffffffffffffffffff1673ffffffffffffffffffffffffffffffffffffffff166343772cbc86600a60008967ffffffffffffffff1667ffffffffffffffff16815260200190815260200160002060010160050154600a60008a67ffffffffffffffff1667ffffffffffffffff168152602001908152602001600020600101600401548789600a60008d67ffffffffffffffff1667ffffffffffffffff16815260200190815260200160002060010160000160009054906101000a900473ffffffffffffffffffffffffffffffffffffffff16600d60008d815260200190815260200160002060000154898b6040518a63ffffffff167c0100000000000000000000000000000000000000000000000000000000028152600401808a67ffffffffffffffff1667ffffffffffffffff168152602001898152602001888152602001806020018781526020018673ffffffffffffffffffffffffffffffffffffffff1673ffffffffffffffffffffffffffffffffffffffff1681526020018560001916600019168152602001806020018060200184810384528a818151815260200191508051906020019080838360005b83811015615761578082015181840152602081019050615746565b50505050905090810190601f16801561578e5780820380516001836020036101000a031916815260200191505b50848103835286818151815260200191508051906020019080838360005b838110156157c75780820151818401526020810190506157ac565b50505050905090810190601f1680156157f45780820380516001836020036101000a031916815260200191505b50848103825285818151815260200191508051906020019080838360005b8381101561582d578082015181840152602081019050615812565b50505050905090810190601f16801561585a5780820380516001836020036101000a031916815260200191505b509c50505050505050505050505050600060405180830381600087803b15801561588357600080fd5b505af1158015615897573d6000803e3d6000fd5b505050505050505050565b6158aa615c6f565b6000808351915060208401905060408051908101604052808281526020018381525092505050919050565b60606158df615c89565b60008360405190808252806020026020018201604052801561591b57816020015b615908615caa565b8152602001906001900390816159005790505b509250615927856159b1565b91505b838110156159635761593b826159e5565b838281518110151561594957fe5b90602001906020020181905250808060010191505061592a565b505092915050565b60008061597783615a29565b509050600c6101000a815104915050919050565b600080600061599984615a29565b91509150806020036101000a82510492505050919050565b6159b9615c89565b60006159c483615a96565b83600001510190508282600001819052508082602001818152505050919050565b6159ed615c6f565b60008083602001519150615a0082615aed565b905081836000018181525050808360200181815250508082018460200181815250505050919050565b600080600080600085600001519150815160001a92506080831015615a545781945060019350615a8e565b60b8831015615a725760018660200151039350600182019450615a8d565b60b78303905080600187602001510303935060018183010194505b5b505050915091565b600080600083600001519050805160001a91506080821015615abb5760009250615ae6565b60b8821080615ad7575060c08210158015615ad6575060f882105b5b15615ae55760019250615ae6565b5b5050919050565b600080825160001a90506080811015615b095760019150615b1d565b60b8811015615b1c576001608082030191505b5b50919050565b6101606040519081016040528060006002811115615b3d57fe5b8152602001600073ffffffffffffffffffffffffffffffffffffffff168152602001615b67615cc4565b81526020016000815260200160008152602001600081525090565b608060405190810160405280600073ffffffffffffffffffffffffffffffffffffffff168152602001600073ffffffffffffffffffffffffffffffffffffffff16815260200160008019168152602001600081525090565b60c060405190810160405280600073ffffffffffffffffffffffffffffffffffffffff168152602001600073ffffffffffffffffffffffffffffffffffffffff168152602001600081526020016000815260200160008152602001600081525090565b815481835581811115615c6a57600402816004028360005260206000209182019101615c699190615d27565b5b505050565b604080519081016040528060008152602001600081525090565b606060405190810160405280615c9d615caa565b8152602001600081525090565b604080519081016040528060008152602001600081525090565b60c060405190810160405280600073ffffffffffffffffffffffffffffffffffffffff168152602001600073ffffffffffffffffffffffffffffffffffffffff168152602001600081526020016000815260200160008152602001600081525090565b615da191905b80821115615d9d57600080820160006101000a81549073ffffffffffffffffffffffffffffffffffffffff02191690556001820160006101000a81549073ffffffffffffffffffffffffffffffffffffffff02191690556002820160009055600382016000905550600401615d2d565b5090565b905600a165627a7a723058209eed1e850d86a9f9360045ecb90d176e2f938144b25c9942865645d1983b01ce0029",
  "source": "// Copyright Loom Network 2018 - All rights reserved, Dual licensed on GPLV3\n// Learn more about Loom DappChains at https://loomx.io\n// All derivitive works of this code must incluse this copyright header on every file\n\npragma solidity ^0.4.24;\n\n\n// ERC721\nimport \"./DockPlasmaToken.sol\";\n\n// ERC20\nimport \"./ERC20.sol\";\n\n// Lib deps\nimport \"./SafeMath.sol\";\nimport \"./ChallengeLib.sol\";\nimport \"./Transaction.sol\";\n\n// Inclusion checks\nimport \"./DoChecks.sol\";\n\n\ncontract PlasmaContract {\n\n    /**\n     * Event for coin deposit logging.\n     * @notice The Deposit event indicates that a deposit block has been added\n     *         to the Plasma chain\n     * @param slot Plasma slot, a unique identifier, assigned to the deposit\n     * @param blockNumber The index of the block in which a deposit transaction\n     *                    is included\n     * @param denomination Quantity of a particular coin deposited\n     * @param from The address of the depositor\n     */\n    event Deposit(uint64 indexed slot, uint256 blockNumber, uint256 denomination,\n                  address indexed from);\n\n    /**\n     * Event for block submission logging\n     * @notice The event indicates the addition of a new Plasma block\n     * @param blockNumber The block number of the submitted block\n     * @param root The root hash of the Merkle tree containing all of a block's\n     *             transactions.\n     * @param timestamp The time when a block was added to the Plasma chain\n     */\n    event SubmittedBlock(uint256 blockNumber, bytes32 root, uint256 timestamp);\n\n    /**\n     * Event for logging exit starts\n     * @param slot The slot of the coin being exited\n     * @param owner The user who claims to own the coin being exited\n     */\n    event StartedExit(uint64 indexed slot, address indexed owner);\n\n    /**\n     * Event for exit challenge logging\n     * @notice This event only fires if `challengeBefore` is called.\n     * @param slot The slot of the coin whose exit was challenged\n     * @param txHash The hash of the tx used for the challenge\n     */\n    event ChallengedExit(uint64 indexed slot, bytes32 txHash, uint256 challengingBlockNumber);\n\n    /**\n     * Event for exit response logging\n     * @notice This only logs responses to `challengeBefore`\n     * @param slot The slot of the coin whose challenge was responded to\n     */\n    event RespondedExitChallenge(uint64 indexed slot);\n\n    /**\n     * Event for logging when an exit was successfully challenged\n     * @param slot The slot of the coin being reset to NOT_EXITING\n     * @param owner The owner of the coin\n     */\n    event CoinReset(uint64 indexed slot, address indexed owner);\n\n    /**\n     * Event for exit finalization logging\n     * @param slot The slot of the coin whose exit has been finalized\n     * @param owner The owner of the coin whose exit has been finalized\n     */\n    event FinalizedExit(uint64 indexed slot, address owner);\n\n    /**\n     * Event to log the freeing of a bond\n     * @param from The address of the user whose bonds have been freed\n     * @param amount The bond amount which can now be withdrawn\n     */\n    event FreedBond(address indexed from, uint256 amount);\n\n    /**\n     * Event to log the slashing of a bond\n     * @param from The address of the user whose bonds have been slashed\n     * @param to The recipient of the slashed bonds\n     * @param amount The bound amount which has been forfeited\n     */\n    event SlashedBond(address indexed from, address indexed to, uint256 amount);\n\n    /**\n     * Event to log the withdrawal of a bond\n     * @param from The address of the user who withdrew bonds\n     * @param amount The bond amount which has been withdrawn\n     */\n    event WithdrewBonds(address indexed from, uint256 amount);\n\n    /**\n     * Event to log the withdrawal of a coin\n     * @param owner The address of the user who withdrew bonds\n     * @param slot the slot of the coin that was exited\n     * @param uid The uid of the coin being withdrawn if ERC721, else 0\n     * @param denomination The denomination of the coin which has been withdrawn (=1 for ERC721)\n     */\n    event Withdrew(address indexed owner, uint64 indexed slot, uint uid, uint denomination);\n\n    using SafeMath for uint256;\n    using Transaction for bytes;\n    using ChallengeLib for ChallengeLib.Challenge[];\n\n    uint256 public bond_amount;\n    // An exit can be finalized after it has matured,\n    // after T2 = T0 + maturity_period\n    // An exit can be challenged in the first window\n    // between T0 and T1 ( T1 = T0 + challenge_window)\n    // A challenge can be responded to in the second window\n    // between T1 and T2\n    uint256 maturity_period;\n    uint256 challenge_window;\n    bool paused;\n\n    address validator;\n    address erc20_DOCK_addr;\n    address erc721_DPT_addr;\n    address do_checks_addr;\n\n    /*\n     * Modifiers\n     */\n    modifier isValidator() {\n        require(msg.sender == validator);\n        _;\n    }\n\n    modifier isBonded() {\n        require(msg.value == bond_amount);\n        // Save challenger's bond\n        balances[msg.sender].bonded = balances[msg.sender].bonded.add(msg.value);\n        _;\n    }\n\n    modifier isState(uint64 slot, State state) {\n        require(coins[slot].state == state, \"Wrong state\");\n        _;\n    }\n\n    struct Balance {\n        uint256 bonded;\n        uint256 withdrawable;\n    }\n    mapping (address => Balance) public balances;\n\n    // Each exit can only be challenged by a single challenger at a time\n    struct Exit {\n        address prevOwner; // previous owner of coin\n        address owner;\n        uint256 createdAt;\n        uint256 bond;\n        uint256 prevBlock;\n        uint256 exitBlock;\n    }\n    enum State {\n        NOT_EXITING,\n        EXITING,\n        EXITED\n    }\n\n    // Track owners of txs that are pending a response\n    struct Challenge {\n        address owner;\n        uint256 blockNumber;\n    }\n    mapping (uint64 => ChallengeLib.Challenge[]) private challenges;\n\n    uint256 public numCoins = 0;\n    mapping (uint64 => Coin) private coins;\n    struct Coin {\n        State state;\n        address owner; // who owns that nft\n        Exit exit;\n        uint256 uid;\n        uint256 denomination;\n        uint256 depositBlock;\n    }\n\n    // child chain\n    uint256 public childBlockInterval = 1000;\n    uint256 public currentBlock = 0;\n    struct ChildBlock {\n        bytes32 root;\n        uint256 createdAt;\n    }\n    mapping(uint256 => ChildBlock) public childChain;\n\n    constructor () public {\n        validator = msg.sender;\n    }\n\n    /// @dev called by a Validator to append a Plasma block to the Plasma chain\n    /// @param root The transaction root hash of the Plasma block being added\n    function submitBlock(uint256 blockNumber, bytes32 root)\n        public\n        isValidator\n    {\n        // rounding to next whole `childBlockInterval`\n        require(blockNumber >= currentBlock);\n        currentBlock = blockNumber;\n\n        childChain[currentBlock] = ChildBlock({\n            root: root,\n            createdAt: block.timestamp\n        });\n\n        emit SubmittedBlock(currentBlock, root, block.timestamp);\n    }\n\n    /// @dev Allows anyone to deposit funds into the Plasma chain, called when\n    //       contract receives ERC721\n    /// @notice Appends a deposit block to the Plasma chain\n    ///            identifier allocated by the ERC721 token contract; it is not\n    ///            related to `slot`. If the coin is ETH or ERC20 the uid is 0\n    /// @param denomination The quantity of a particular coin being deposited\n    function deposit(uint256 denomination)\n        private\n    {\n        require(!paused, \"Contract is not accepting more deposits!\");\n\n        uint64 slot = uint64(bytes8(keccak256(abi.encodePacked(numCoins, msg.sender, block.timestamp, block.number))));\n        //mint a new token for the depositor\n        DockPlasmaToken(erc721_DPT_addr).mint(msg.sender, slot);\n\n        currentBlock = currentBlock.add(1);\n        address from = msg.sender;\n\n        // Update state. Leave `exit` empty\n        Coin storage coin = coins[slot];\n        coin.uid = slot;\n        coin.denomination = denomination;\n        coin.depositBlock = currentBlock;\n        coin.owner = from;\n        coin.state = State.NOT_EXITING;\n\n        childChain[currentBlock] = ChildBlock({\n            // save signed transaction hash as root\n            // hash for deposit transactions is the hash of its slot\n            root: keccak256(abi.encodePacked(slot)),\n            createdAt: block.timestamp\n        });\n\n        // create a utxo at `slot`\n        emit Deposit(\n            slot,\n            currentBlock,\n            denomination,\n            from\n        );\n\n        numCoins = numCoins.add(1);\n    }\n\n    // Approve and Deposit function for 2-step deposits without having to approve the token by the validators\n    // Requires first to have called `approve` on the specified ERC20 contract\n    function participate(uint256 amount) external {\n        require(ERC20(erc20_DOCK_addr).transferFrom(msg.sender, address(this), amount), \"Transfer failed\");\n        deposit(amount);\n\n    }\n\n    /******************** EXIT RELATED ********************/\n\n    function startExit(\n        uint64 slot,\n        bytes prevTxBytes, bytes exitingTxBytes,\n        bytes prevTxInclusionProof, bytes exitingTxInclusionProof,\n        bytes signature,\n        uint256[2] blocks)\n        external\n        payable isBonded\n        isState(slot, State.NOT_EXITING)\n    {\n        require(msg.sender == exitingTxBytes.getOwner());\n        doInclusionChecks(\n            prevTxBytes, exitingTxBytes,\n            prevTxInclusionProof, exitingTxInclusionProof,\n            signature,\n            blocks\n        );\n\n        pushExit(slot, prevTxBytes.getOwner(), blocks);\n    }\n\n    /// @dev Verifies that consecutive two transaction involving the same coin\n    ///      are valid\n    /// @notice If exitingTxBytes corresponds to a deposit transaction,\n    ///         prevTxBytes cannot have a meaningul value and thus it is ignored.\n    /// @param prevTxBytes The RLP-encoded transaction involving a particular\n    ///        coin which took place directly before exitingTxBytes\n    /// @param exitingTxBytes The RLP-encoded transaction involving a particular\n    ///        coin which an exiting owner of the coin claims to be the latest\n    /// @param prevTxInclusionProof An inclusion proof of prevTx\n    /// @param exitingTxInclusionProof An inclusion proof of exitingTx\n    /// @param signature The signature of the exitingTxBytes by the coin\n    ///        owner indicated in prevTx\n    /// @param blocks An array of two block numbers, at index 0, the block\n    ///        containing the prevTx and at index 1, the block containing\n    ///        the exitingTx\n    function doInclusionChecks(\n        bytes prevTxBytes, bytes exitingTxBytes,\n        bytes prevTxInclusionProof, bytes exitingTxInclusionProof,\n        bytes signature,\n        uint256[2] blocks)\n        private\n        view\n    {\n        if (blocks[1] % childBlockInterval != 0) {\n            DoChecks(do_checks_addr).checkIncludedAndSigned(\n                exitingTxBytes,\n                exitingTxInclusionProof,\n                signature,\n                childChain[blocks[1]].root,\n                blocks[1]\n            );\n        } else {\n            DoChecks(do_checks_addr).checkBothIncludedAndSigned(\n                prevTxBytes, exitingTxBytes, prevTxInclusionProof,\n                exitingTxInclusionProof, signature,\n                childChain[blocks[0]].root, childChain[blocks[1]].root,\n                blocks\n            );\n        }\n    }\n\n    // Needed to bypass stack limit errors\n    function pushExit(\n        uint64 slot,\n        address prevOwner,\n        uint256[2] blocks)\n        private\n    {\n        // Create exit\n        Coin storage c = coins[slot];\n        c.exit = Exit({\n            prevOwner: prevOwner,\n            owner: msg.sender,\n            createdAt: block.timestamp,\n            bond: msg.value,\n            prevBlock: blocks[0],\n            exitBlock: blocks[1]\n        });\n\n        // Update coin state\n        c.state = State.EXITING;\n        emit StartedExit(slot, msg.sender);\n    }\n\n    /// @dev Finalizes an exit, i.e. puts the exiting coin into the EXITED\n    ///      state which will allow it to be withdrawn, provided the exit has\n    ///      matured and has not been successfully challenged\n    function finalizeExit(uint64 slot) public {\n        Coin storage coin = coins[slot];\n\n        // If a coin is not under exit/challenge, then ignore it\n        if (coin.state != State.EXITING)\n            return;\n\n        // If an exit is not matured, ignore it\n        if ((block.timestamp - coin.exit.createdAt) <= maturity_period)\n            return;\n\n        // Check if there are any pending challenges for the coin.\n        // `checkPendingChallenges` will also penalize\n        // for each challenge that has not been responded to\n        bool hasChallenges = checkPendingChallenges(slot);\n\n        if (!hasChallenges) {\n\n            address prevOwner = coin.owner;\n            // Update coin's owner\n            coin.owner = coin.exit.owner;\n            coin.state = State.EXITED;\n\n            DockPlasmaToken(erc721_DPT_addr).transferFrom(prevOwner, coin.owner, slot);\n            // Allow the exitor to withdraw their bond\n            freeBond(coin.owner);\n\n            emit FinalizedExit(slot, coin.owner);\n        } else {\n            // Reset coin state since it was challenged\n            coin.state = State.NOT_EXITING;\n            emit CoinReset(slot, coin.owner);\n        }\n\n        delete coins[slot].exit;\n    }\n\n    function checkPendingChallenges(uint64 slot) private returns (bool hasChallenges) {\n        uint256 length = challenges[slot].length;\n        bool slashed;\n        for (uint i = 0; i < length; i++) {\n            if (challenges[slot][i].txHash != 0x0) {\n                // Penalize the exitor and reward the first valid challenger.\n                if (!slashed) {\n                    slashBond(coins[slot].exit.owner, challenges[slot][i].challenger);\n                    slashed = true;\n                }\n                // Also free the bond of the challenger.\n                freeBond(challenges[slot][i].challenger);\n\n                // Challenge resolved, delete it\n                delete challenges[slot][i];\n                hasChallenges = true;\n            }\n        }\n    }\n\n    /// @dev Iterates through all of the initiated exits and finalizes those\n    ///      which have matured without being successfully challenged\n    function finalizeExits(uint64[] slots) external {\n        uint256 slotsLength = slots.length;\n        for (uint256 i = 0; i < slotsLength; i++) {\n            finalizeExit(slots[i]);\n        }\n    }\n\n    function cancelExit(uint64 slot) public {\n        require(coins[slot].exit.owner == msg.sender, \"Unauthorized user\");\n        delete coins[slot].exit;\n        coins[slot].state = State.NOT_EXITING;\n        freeBond(msg.sender);\n        emit CoinReset(slot, coins[slot].owner);\n    }\n\n    /*\n        NOTE :\n            removed function cancelExits() so we wont extend block\n            gas limit on deployment.\n    */\n\n    /// @dev Withdraw a UTXO that has been exited\n    /// @param slot The slot of the coin being withdrawn\n    function withdraw(uint64 slot) external isState(slot, State.EXITED) {\n        require(coins[slot].owner == msg.sender, \"You do not own that UTXO\");\n        uint256 uid = coins[slot].uid;\n        uint256 denomination = coins[slot].denomination;\n\n        // Delete the coin that is being withdrawn\n        Coin memory c = coins[slot];\n        delete coins[slot];\n\n        ERC20(erc20_DOCK_addr).transfer(msg.sender, c.denomination);\n        DockPlasmaToken(erc721_DPT_addr).burn(slot);\n\n        numCoins = numCoins.sub(1);\n\n        emit Withdrew(\n            msg.sender,\n            slot,\n            uid,\n            denomination\n        );\n\n    }\n\n    /******************** CHALLENGES ********************/\n\n    /// @dev Submits proof of a transaction before prevTx as an exit challenge\n    /// @notice Exitor has to call respondChallengeBefore and submit a\n    ///         transaction before prevTx or prevTx itself.\n    /// @param slot The slot corresponding to the coin whose exit is being challenged\n    /// @param txBytes The RLP-encoded transaction involving a particular\n    ///        coin which an exiting owner of the coin claims to be the latest\n    /// @param txInclusionProof An inclusion proof of exitingTx\n    /// @param signature The signature of the txBytes by the coin\n    ///        owner indicated in prevTx\n    /// @param blockNumber The block containing the exitingTx\n    function challengeBefore(\n        uint64 slot,\n        bytes txBytes,\n        bytes txInclusionProof,\n        bytes signature,\n        uint256 blockNumber)\n        external\n        payable isBonded\n        isState(slot, State.EXITING)\n    {\n\n        checkBefore(\n            slot,\n            txBytes,\n            blockNumber,\n            signature,\n            txInclusionProof\n        );\n\n        setChallenged(\n            slot,\n            txBytes.getOwner(),\n            blockNumber,\n            txBytes.getHash()\n        );\n\n    }\n\n    function checkBefore(\n        uint64 slot,\n        bytes txBytes,\n        uint blockNumber,\n        bytes signature,\n        bytes txInclusionProof\n    )\n        private\n        view\n    {\n        uint exitPrevBlock = coins[slot].exit.prevBlock;\n\n        DoChecks(do_checks_addr).checkBefore(\n            slot,\n            txBytes,\n            blockNumber,\n            exitPrevBlock,\n            signature,\n            txInclusionProof,\n            childChain[blockNumber].root\n        );\n\n    }\n\n    /// @dev Submits proof of a later transaction that corresponds to a challenge\n    /// @notice Can only be called in the second window of the exit period.\n    /// @param slot The slot corresponding to the coin whose exit is being challenged\n    /// @param challengingTxHash The hash of the transaction\n    ///        corresponding to the challenge we're responding to\n    /// @param respondingBlockNumber The block number which included the transaction\n    ///        we are responding with\n    /// @param respondingTransaction The RLP-encoded transaction involving a particular\n    ///        coin which took place directly after challengingTransaction\n    /// @param proof An inclusion proof of respondingTransaction\n    /// @param signature The signature which proves a direct spend from the challenger\n    function respondChallengeBefore(\n        uint64 slot,\n        bytes32 challengingTxHash,\n        uint256 respondingBlockNumber,\n        bytes respondingTransaction,\n        bytes proof,\n        bytes signature\n    )\n        external\n    {\n        // Check that the transaction being challenged exists\n        require(challenges[slot].contains(challengingTxHash), \"Responding to non existing challenge\");\n\n        // Get index of challenge in the challenges array\n        uint256 index = uint256(challenges[slot].indexOf(challengingTxHash));\n\n        checkResponse(\n            slot,\n            respondingBlockNumber,\n            index,\n            respondingTransaction,\n            proof,\n            signature\n        );\n\n        // If the exit was actually challenged and responded, penalize the challenger and award the responder\n        slashBond(challenges[slot][index].challenger, msg.sender);\n\n        // Put coin back to the exiting state\n        coins[slot].state = State.EXITING;\n\n        challenges[slot].remove(challengingTxHash);\n        emit RespondedExitChallenge(slot);\n    }\n\n    function checkResponse(\n        uint64 slot,\n        uint256 respondingBlockNumber,\n        uint256 index,\n        bytes respondingTransaction,\n        bytes proof,\n        bytes signature\n    )\n        private\n        view\n    {\n\n        DoChecks(do_checks_addr).checkResponse(\n            slot,\n            respondingBlockNumber,\n            coins[slot].exit.exitBlock,\n            challenges[slot][index].challengingBlockNumber,\n            challenges[slot][index].owner,\n            childChain[respondingBlockNumber].root,\n            respondingTransaction,\n            signature,\n            proof\n        );\n\n    }\n\n    function challengeBetween(\n        uint64 slot,\n        uint256 challengingBlockNumber,\n        bytes challengingTransaction,\n        bytes proof,\n        bytes signature\n    )\n        external\n        isState(slot, State.EXITING)\n    {\n\n        checkBetween(\n            slot,\n            challengingBlockNumber,\n            challengingTransaction,\n            proof,\n            signature\n        );\n        applyPenalties(slot);\n    }\n\n    function checkBetween(\n        uint64 slot,\n        uint256 challengingBlockNumber,\n        bytes challengingTransaction,\n        bytes proof,\n        bytes signature\n    )\n        private\n        view\n    {\n\n        DoChecks(do_checks_addr).checkBetween(\n            slot,\n            coins[slot].exit.exitBlock,\n            coins[slot].exit.prevBlock,\n            challengingTransaction,\n            challengingBlockNumber,\n            coins[slot].exit.prevOwner,\n            childChain[challengingBlockNumber].root,\n            signature,\n            proof\n        );\n\n    }\n\n    function challengeAfter(\n        uint64 slot,\n        uint256 challengingBlockNumber,\n        bytes challengingTransaction,\n        bytes proof,\n        bytes signature)\n        external\n        isState(slot, State.EXITING)\n    {\n        checkAfter(slot, challengingTransaction, challengingBlockNumber, signature, proof);\n        applyPenalties(slot);\n    }\n\n    function checkAfter(\n        uint64 slot,\n        bytes challengingTransaction,\n        uint256 challengingBlockNumber,\n        bytes proof,\n        bytes signature\n    )\n        private\n        view\n    {\n\n        DoChecks(do_checks_addr).checkAfter(\n            slot,\n            challengingTransaction,\n            coins[slot].exit.exitBlock,\n            coins[slot].exit.owner,\n            challengingBlockNumber,\n            childChain[challengingBlockNumber].root,\n            proof,\n            signature\n        );\n    }\n\n    function applyPenalties(uint64 slot) private {\n        // Apply penalties and change state\n        slashBond(coins[slot].exit.owner, msg.sender);\n        coins[slot].state = State.NOT_EXITING;\n        delete coins[slot].exit;\n        emit CoinReset(slot, coins[slot].owner);\n    }\n\n    /// @param slot The slot of the coin being challenged\n    /// @param owner The user claimed to be the true owner of the coin\n    function setChallenged(uint64 slot, address owner, uint256 challengingBlockNumber, bytes32 txHash) private {\n        // Require that the challenge is in the first half of the challenge window\n        require(block.timestamp <= coins[slot].exit.createdAt + challenge_window);\n\n        require(!challenges[slot].contains(txHash),\n                \"Transaction used for challenge already\");\n\n        // Need to save the exiting transaction's owner, to verify\n        // that the response is valid\n        challenges[slot].push(\n            ChallengeLib.Challenge({\n                owner: owner,\n                challenger: msg.sender,\n                txHash: txHash,\n                challengingBlockNumber: challengingBlockNumber\n            })\n        );\n\n        emit ChallengedExit(slot, txHash, challengingBlockNumber);\n    }\n\n\n    /******************** BOND RELATED ********************/\n\n    function freeBond(address from) private {\n        balances[from].bonded = balances[from].bonded.sub(bond_amount);\n        balances[from].withdrawable = balances[from].withdrawable.add(bond_amount);\n        emit FreedBond(from, bond_amount);\n    }\n\n    function withdrawBonds() external {\n        // Can only withdraw bond if the msg.sender\n        uint256 amount = balances[msg.sender].withdrawable;\n        balances[msg.sender].withdrawable = 0; // no reentrancy!\n\n        msg.sender.transfer(amount);\n        emit WithdrewBonds(msg.sender, amount);\n    }\n\n    function slashBond(address from, address to) private {\n        balances[from].bonded = balances[from].bonded.sub(bond_amount);\n        balances[to].withdrawable = balances[to].withdrawable.add(bond_amount);\n        emit SlashedBond(from, to, bond_amount);\n    }\n\n    /*********************  Sets ***************************/\n\n    // @dev Called by validator/owner of the contract in order to update\n    //      mautrity wainting time and bond.\n    // @param amount The amount to update bond.\n    // @param _maturity_period The value to update maturity period time.\n    // @param _challenge_window The value to update challenge window time.\n    function setMaturityAndBond(\n        uint256 amount,\n        uint256 _maturity_period,\n        uint256 _challenge_window\n    )\n        public\n        isValidator\n    {\n        maturity_period = _maturity_period;\n        challenge_window = _challenge_window;\n        bond_amount = amount;\n    }\n\n    // @dev Called by validator/owner of the contract in order to pause Plasma\n    // @param _pause Boolean to update paused to true or false.\n    function pause(bool _pause) public isValidator{\n        paused = _pause;\n    }\n\n    // @dev Called by validator/owner of the contract to link all needed\n    //      contracts together.\n    // @param _erc20_DOCK_addr The Erc20 deployed address.\n    // @param _erc721_DPT_addr The DockPlasmaToken deployed address.\n    // @param _do_checks_addr The DoChecks deployed address.\n    function setAddresses(\n        address _erc20_DOCK_addr,\n        address _erc721_DPT_addr,\n        address _do_checks_addr\n    )\n        public\n        isValidator\n    {\n        erc20_DOCK_addr = _erc20_DOCK_addr;\n        erc721_DPT_addr = _erc721_DPT_addr;\n        do_checks_addr = _do_checks_addr;\n    }\n\n    /******************** HELPERS ********************/\n\n    function getMaturityAndBond() public view returns(uint256, uint256, uint256){\n        return (maturity_period, challenge_window, bond_amount);\n    }\n\n    function getPlasmaCoin(uint64 slot) external view returns(uint256, uint256, uint256, address, State) {\n        Coin memory c = coins[slot];\n        return (c.uid, c.depositBlock, c.denomination, c.owner, c.state);\n    }\n\n    function getChallenge(uint64 slot, bytes32 txHash)\n        external\n        view\n        returns(address, address, bytes32, uint256)\n    {\n        uint256 index = uint256(challenges[slot].indexOf(txHash));\n        ChallengeLib.Challenge memory c = challenges[slot][index];\n        return (c.owner, c.challenger, c.txHash, c.challengingBlockNumber);\n    }\n\n    function getExit(uint64 slot) external view returns(address, uint256, uint256, State, uint256) {\n        Exit memory e = coins[slot].exit;\n        return (e.owner, e.prevBlock, e.exitBlock, coins[slot].state, e.createdAt);\n    }\n\n}\n",
  "sourcePath": "/home/adriatik/bl/plasma-base/contracts/PlasmaContract.sol",
  "compiler": {
    "name": "solc",
    "version": "0.4.24+commit.e67f0147.Emscripten.clang"
  },
  "schemaVersion": "2.0.1",
  "updatedAt": "2019-01-11T14:25:14.013Z"
}