{
  "contractName": "SparseMerkleTree",
  "abi": [
    {
      "constant": true,
      "inputs": [
        {
          "name": "",
          "type": "uint256"
        }
      ],
      "name": "defaultHashes",
      "outputs": [
        {
          "name": "",
          "type": "bytes32"
        }
      ],
      "payable": false,
      "stateMutability": "view",
      "type": "function"
    },
    {
      "inputs": [],
      "payable": false,
      "stateMutability": "nonpayable",
      "type": "constructor"
    },
    {
      "constant": true,
      "inputs": [
        {
          "name": "leaf",
          "type": "bytes32"
        },
        {
          "name": "root",
          "type": "bytes32"
        },
        {
          "name": "tokenID",
          "type": "uint64"
        },
        {
          "name": "proof",
          "type": "bytes"
        }
      ],
      "name": "checkMembership",
      "outputs": [
        {
          "name": "",
          "type": "bool"
        }
      ],
      "payable": false,
      "stateMutability": "view",
      "type": "function"
    },
    {
      "constant": true,
      "inputs": [
        {
          "name": "leaf",
          "type": "bytes32"
        },
        {
          "name": "index",
          "type": "uint64"
        },
        {
          "name": "proof",
          "type": "bytes"
        }
      ],
      "name": "getRoot",
      "outputs": [
        {
          "name": "",
          "type": "bytes32"
        }
      ],
      "payable": false,
      "stateMutability": "view",
      "type": "function"
    }
  ],
  "bytecode": "0x608060405234801561001057600080fd5b507f290decd9548b62a8d60345a988386fc84ba6bc95484008f6362f93160ef3e56360010260008060418110151561004457fe5b0181600019169055506100686001604061006d640100000000026401000000009004565b610175565b60008290505b8160ff168160ff161115156101705760006001820360ff1660418110151561009757fe5b015460006001830360ff166041811015156100ae57fe5b01546040516020018083600019166000191681526020018260001916600019168152602001925050506040516020818303038152906040526040518082805190602001908083835b60208310151561011b57805182526020820191506020810190506020830392506100f6565b6001836020036101000a038019825116818451168082178552505050505050905001915050604051809103902060008260ff1660418110151561015a57fe5b0181600019169055508080600101915050610073565b505050565b6104dd806101846000396000f300608060405260043610610057576000357c0100000000000000000000000000000000000000000000000000000000900463ffffffff16806348419ad81461005c578063509a7e54146100a5578063f586df651461014c575b600080fd5b34801561006857600080fd5b50610087600480360381019080803590602001909291905050506101fd565b60405180826000191660001916815260200191505060405180910390f35b3480156100b157600080fd5b5061012e6004803603810190808035600019169060200190929190803567ffffffffffffffff169060200190929190803590602001908201803590602001908080601f0160208091040260200160405190810160405280939291908181526020018383808284378201915050505050509192919290505050610217565b60405180826000191660001916815260200191505060405180910390f35b34801561015857600080fd5b506101e360048036038101908080356000191690602001909291908035600019169060200190929190803567ffffffffffffffff169060200190929190803590602001908201803590602001908080601f016020809104026020016040519081016040528093929190818152602001838380828437820191505050505050919291929050505061048b565b604051808215151515815260200191505060405180910390f35b60008160418110151561020c57fe5b016000915090505481565b60008060008060008060006020600889510381151561023257fe5b061480156102435750610808875111155b151561024e57600080fd5b8893506008925060186101000a6020880151049150600090505b604060ff1681101561047c57600060028367ffffffffffffffff1681151561028c57fe5b0667ffffffffffffffff1614156102b5576000816041811015156102ac57fe5b015494506102d6565b6020830192508261ffff168751101515156102cf57600080fd5b8287015194505b600060028967ffffffffffffffff168115156102ee57fe5b0667ffffffffffffffff1614156103a05783856040516020018083600019166000191681526020018260001916600019168152602001925050506040516020818303038152906040526040518082805190602001908083835b60208310151561036c5780518252602082019150602081019050602083039250610347565b6001836020036101000a0380198251168184511680821785525050505050509050019150506040518091039020935061043d565b84846040516020018083600019166000191681526020018260001916600019168152602001925050506040516020818303038152906040526040518082805190602001908083835b60208310151561040d57805182526020820191506020810190506020830392506103e8565b6001836020036101000a038019825116818451168082178552505050505050905001915050604051809103902093505b60028267ffffffffffffffff1681151561045357fe5b04915060028867ffffffffffffffff1681151561046c57fe5b0497508080600101915050610268565b83955050505050509392505050565b600080610499868585610217565b905084600019168160001916149150509493505050505600a165627a7a7230582000a4e1f008d237273682c94d26c68588b3964e4d62583cde7db9ae6a48c958940029",
  "source": "pragma solidity ^0.4.24;\n\n\n// Based on https://rinkeby.etherscan.io/address/0x881544e0b2e02a79ad10b01eca51660889d5452b#code\n// Original Code for the sparse merkle tree came from Wolkdb Plasma, this is now no longer compatible with that\n// we have javascript and Golang implementations for reference of the new implementation.\ncontract SparseMerkleTree {\n\n    uint8 constant DEPTH = 64;\n    bytes32[DEPTH + 1] public defaultHashes;\n\n    constructor() public {\n        // defaultHash[0] is being set to keccak256(uint256(0));\n        defaultHashes[0] = 0x290decd9548b62a8d60345a988386fc84ba6bc95484008f6362f93160ef3e563;\n        setDefaultHashes(1, DEPTH);\n    }\n\n    function checkMembership(\n        bytes32 leaf,\n        bytes32 root,\n        uint64 tokenID,\n        bytes proof) public view returns (bool)\n    {\n        bytes32 computedHash = getRoot(leaf, tokenID, proof);\n        return (computedHash == root);\n    }\n\n    // first 64 bits of the proof are the 0/1 bits\n    function getRoot(bytes32 leaf, uint64 index, bytes proof) public view returns (bytes32) {\n        require((proof.length - 8) % 32 == 0 && proof.length <= 2056);\n        bytes32 proofElement;\n        bytes32 computedHash = leaf;\n        uint16 p = 8;\n        uint64 proofBits;\n        assembly {proofBits := div(mload(add(proof, 32)), exp(256, 24))}\n\n        for (uint d = 0; d < DEPTH; d++ ) {\n            if (proofBits % 2 == 0) { // check if last bit of proofBits is 0\n                proofElement = defaultHashes[d];\n            } else {\n                p += 32;\n                require(proof.length >= p);\n                assembly { proofElement := mload(add(proof, p)) }\n            }\n            if (index % 2 == 0) {\n                computedHash = keccak256(abi.encodePacked(computedHash, proofElement));\n            } else {\n                computedHash = keccak256(abi.encodePacked(proofElement, computedHash));\n            }\n            proofBits = proofBits / 2; // shift it right for next bit\n            index = index / 2;\n        }\n        return computedHash;\n    }\n\n    function setDefaultHashes(uint8 startIndex, uint8 endIndex) private {\n        for (uint8 i = startIndex; i <= endIndex; i ++) {\n            defaultHashes[i] = keccak256(abi.encodePacked(defaultHashes[i-1], defaultHashes[i-1]));\n        }\n    }\n}\n",
  "sourcePath": "/home/adriatik/bl/plasma-base/contracts/SparseMerkleTree.sol",
  "compiler": {
    "name": "solc",
    "version": "0.4.24+commit.e67f0147.Emscripten.clang"
  },
  "schemaVersion": "2.0.1",
  "updatedAt": "2019-01-11T14:25:14.025Z"
}